:020000040800F2
:1000000000000220890E0108790C0108870C010804
:100010008D0C0108930C0108990C010800000000E8
:100020000000000000000000000000009F0C01081C
:10003000AD0C010800000000BB0C0108C90C010850
:10004000D90E0108D90E0108D90E0108D90E0108F0
:10005000D90E0108D90E0108D90E0108D90E0108E0
:10006000D90E0108D90E0108D90E0108D90E0108D0
:10007000D90E0108D90E0108D90E0108D90E0108C0
:10008000D90E0108D90E0108D90E0108D90E0108B0
:10009000D90E0108D90E0108D90E0108D90E0108A0
:1000A000D90E0108D90E0108D90E0108D90E010890
:1000B000D90E0108D90E0108D90E0108D90E010880
:1000C000D90E0108D90E0108D90E0108D90E010870
:1000D000D90E0108D90E0108D90E0108D90E010860
:1000E000D90E0108D90E0108D90E0108D90E010850
:1000F000D90E0108D90E0108D90E0108D90E010840
:10010000D90E0108D90E0108D90E0108D90E01082F
:10011000D90E0108D90E0108D50C0108D90E010825
:10012000D90E0108D90E0108D90E0108D90E01080F
:10013000D90E01080000000000000000D90E0108DF
:10014000D90E0108D90E0108D90E0108D90E0108EF
:10015000D90E0108D90E0108D90E0108D90E0108DF
:10016000D90E0108D90E0108D90E0108D90E0108CF
:10017000D90E0108D90E010800000000000000009F
:08018000D90E0108D90E010897
:1001900010B5054C237833B9044B13B10448AFF3C1
:1001A00000800123237010BDEC000020000000003F
:1001B0006421010808B5034B1BB103490348AFF3A1
:1001C000008008BD00000000F0000020642101084C
:1001D00001F0FF01102A2BDB10F0070F08D010F8F8
:1001E000013B013A8B422DD010F0070F42B3F6D1FC
:1001F000F0B441EA012141EA014122F007047FF015
:1002000000070023F0E80256083C85EA010586EA6B
:10021000010685FA47F5A3FA87F586FA47F6A5FAA7
:1002200087F68EB9EED1F0BC01F0FF0102F00702B3
:1002300032B110F8013B013A83EA010313B1F8D15E
:100240000020704701387047002D06BF354603383F
:10025000073815F0010F07D1013015F4807F02BF78
:10026000013015F4C03F0130F0BC0138704700BFC9
:1002700081F0004102E000BF83F0004330B54FEA57
:1002800041044FEA430594EA050F08BF90EA020FC4
:100290001FBF54EA000C55EA020C7FEA645C7FEA57
:1002A000655C00F0E2804FEA5454D4EB5555B8BF7A
:1002B0006D420CDD2C4480EA020281EA030382EAEB
:1002C000000083EA010180EA020281EA0303362D7D
:1002D00088BF30BD11F0004F4FEA01314FF4801C50
:1002E0004CEA113102D0404261EB410113F0004F62
:1002F0004FEA03334CEA133302D0524263EB430319
:1003000094EA050F00F0A780A4F10104D5F1200EB6
:100310000DDB02FA0EFC22FA05F2801841F1000111
:1003200003FA0EF2801843FA05F359410EE0A5F1E5
:1003300020050EF1200E012A03FA0EFC28BF4CF016
:10034000020C43FA05F3C01851EBE37101F00045CC
:1003500007D54FF0000EDCF1000C7EEB00006EEBD9
:100360000101B1F5801F1BD3B1F5001F0CD3490863
:100370005FEA30004FEA3C0C04F101044FEA4452BA
:1003800012F5800F80F09A80BCF1004F08BF5FEA41
:10039000500C50F1000041EB045141EA050130BD21
:1003A0005FEA4C0C404141EB010111F4801FA4F1C4
:1003B0000104E9D191F0000F04BF01460020B1FA19
:1003C00081F308BF2033A3F10B03B3F120020CDA51
:1003D0000C3208DD02F1140CC2F10C0201FA0CF02F
:1003E00021FA02F10CE002F11402D8BFC2F1200C94
:1003F00001FA02F120FA0CFCDCBF41EA0C0190404A
:10040000E41AA2BF01EB0451294330BD6FEA040492
:100410001F3C1CDA0C340EDC04F11404C4F120027D
:1004200020FA04F001FA02F340EA030021FA04F38F
:1004300045EA030130BDC4F10C04C4F1200220FAE6
:1004400002F001FA04F340EA0300294630BD21FA24
:1004500004F0294630BD94F0000F83F4801306BFEA
:1004600081F480110134013D4EE77FEA645C18BFDE
:100470007FEA655C29D094EA050F08BF90EA020F75
:1004800005D054EA000C04BF1946104630BD91EA6D
:10049000030F1EBF0021002030BD5FEA545C05D170
:1004A0004000494128BF41F0004130BD14F58004AF
:1004B0003CBF01F5801130BD01F0004545F0FE4123
:1004C00041F470014FF0000030BD7FEA645C1ABF58
:1004D000194610467FEA655C1CBF0B46024650EA8F
:1004E000013406BF52EA033591EA030F41F40021BB
:1004F00030BD00BF90F0000F04BF0021704730B541
:100500004FF4806404F132044FF000054FF0000115
:1005100050E700BF90F0000F04BF0021704730B5D6
:100520004FF4806404F1320410F0004548BF4042AB
:100530004FF000013EE700BF42004FEAE2014FEA00
:1005400031014FEA02701FBF12F07F4393F07F4FDB
:1005500081F06051704732F07F4208BF704793F0DE
:100560007F4F04BF41F40021704730B54FF46074F1
:1005700001F0004521F000411CE700BF50EA0102F4
:1005800008BF704730B54FF000050AE050EA01029D
:1005900008BF704730B511F0004502D5404261EB0D
:1005A00041014FF4806404F132045FEA915C3FF44E
:1005B000D8AE4FF003025FEADC0C18BF03325FEAEB
:1005C000DC0C18BF033202EBDC02C2F1200300FA9C
:1005D00003FC20FA02F001FA03FE40EA0E0021FAC1
:1005E00002F11444BDE600BF70B54FF0FF0C4CF4AF
:1005F000E06C1CEA11541DBF1CEA135594EA0C0F61
:1006000095EA0C0F00F0DEF82C4481EA030621EA9B
:100610004C5123EA4C5350EA013518BF52EA0335D6
:1006200041F4801143F4801338D0A0FB02CE4FF088
:100630000005E1FB02E506F00042E0FB03E54FF0B8
:100640000006E1FB03569CF0000F18BF4EF0010EB0
:10065000A4F1FF04B6F5007F64F5407404D25FEAAC
:100660004E0E6D4146EB060642EAC62141EA55515F
:100670004FEAC52040EA5E504FEACE2EB4F1FD0CA1
:1006800088BFBCF5E06F1ED8BEF1004F08BF5FEA1F
:10069000500E50F1000041EB045170BD06F00046D1
:1006A00046EA010140EA020081EA0301B4EB5C047E
:1006B000C2BFD4EB0C0541EA045170BD41F4801176
:1006C0004FF0000E013C00F3AB8014F1360FDEBF9B
:1006D000002001F0004170BDC4F10004203C35DA77
:1006E0000C341BDC04F11404C4F1200500FA05F3FA
:1006F00020FA04F001FA05F240EA020001F000429B
:1007000021F0004110EBD37021FA04F642EB060110
:100710005EEA430E08BF20EAD37070BDC4F10C043A
:10072000C4F1200500FA04F320FA05F001FA04F2FE
:1007300040EA020001F0004110EBD37041F10001EA
:100740005EEA430E08BF20EAD37070BDC4F12005F5
:1007500000FA05F24EEA020E20FA04F301FA05F25D
:1007600043EA020321FA04F001F0004121FA04F205
:1007700020EA020000EBD3705EEA430E08BF20EAD5
:10078000D37070BD94F0000F0FD101F0004640000F
:1007900041EB010111F4801F08BF013CF7D041EA91
:1007A000060195F0000F18BF704703F00046520095
:1007B00043EB030313F4801F08BF013DF7D043EA66
:1007C0000603704794EA0C0F0CEA135518BF95EA1C
:1007D0000C0F0CD050EA410618BF52EA4306D1D1A3
:1007E00081EA030101F000414FF0000070BD50EAC2
:1007F000410606BF1046194652EA430619D094EA4C
:100800000C0F02D150EA013613D195EA0C0F05D135
:1008100052EA03361CBF104619460AD181EA030189
:1008200001F0004141F0FE4141F470014FF0000041
:1008300070BD41F0FE4141F4780170BD70B54FF0DC
:10084000FF0C4CF4E06C1CEA11541DBF1CEA13555C
:1008500094EA0C0F95EA0C0F00F0A7F8A4EB05043E
:1008600081EA030E52EA03354FEA013100F0888035
:100870004FEA03334FF0805545EA131343EA1263FE
:100880004FEA022245EA111545EA10654FEA0026B3
:100890000EF000419D4208BF964244F1FD0404F56C
:1008A000407402D25B084FEA3202B61A65EB0305C8
:1008B0005B084FEA32024FF480104FF4002CB6EB85
:1008C000020E75EB030E22BFB61A754640EA0C0005
:1008D0005B084FEA3202B6EB020E75EB030E22BF45
:1008E000B61A754640EA5C005B084FEA3202B6EB86
:1008F000020E75EB030E22BFB61A754640EA9C0045
:100900005B084FEA3202B6EB020E75EB030E22BF14
:10091000B61A754640EADC0055EA060E18D04FEAD2
:10092000051545EA16754FEA06164FEAC30343EA72
:1009300052734FEAC2025FEA1C1CC0D111F4801F3F
:100940000BD141EA00014FF000004FF0004CB6E738
:1009500011F4801F04BF01430020B4F1FD0C88BFD7
:10096000BCF5E06F3FF6AFAEB5EB030C04BFB6EBE2
:10097000020C5FEA500C50F1000041EB045170BDD5
:100980000EF0004E4EEA113114EB5C04C2BFD4EB02
:100990000C0541EA045170BD41F480114FF0000E86
:1009A000013C90E645EA060E8DE60CEA135594EA02
:1009B0000C0F08BF95EA0C0F3FF43BAF94EA0C0F05
:1009C0000AD150EA01347FF434AF95EA0C0F7FF47A
:1009D00025AF104619462CE795EA0C0F06D152EACE
:1009E00003353FF4FDAE1046194622E750EA4106B2
:1009F00018BF52EA43067FF4C5AE50EA41047FF4C3
:100A00000DAF52EA43057FF4EBAE12E74FF0FF3C27
:100A100006E000BF4FF0010C02E000BF4FF0010CF8
:100A20004DF804CD4FEA410C7FEA6C5C4FEA430C71
:100A300018BF7FEA6C5C1BD001B050EA410C0CBFC0
:100A400052EA430C91EA030F02BF90EA020F002022
:100A5000704710F1000F91EA030F58BF994208BF89
:100A600090422CBFD8176FEAE37040F00100704746
:100A70004FEA410C7FEA6C5C02D150EA013C07D19D
:100A80004FEA430C7FEA6C5CD6D152EA033CD3D0E8
:100A90005DF8040B704700BF8446104662468C46E2
:100AA0001946634600E000BF01B5FFF7B7FF002815
:100AB00048BF10F1000F01BD4DF808EDFFF7F4FF3E
:100AC0000CBF012000205DF808FB00BF4DF808EDC9
:100AD000FFF7EAFF34BF012000205DF808FB00BFEC
:100AE0004DF808EDFFF7E0FF94BF012000205DF80E
:100AF00008FB00BF4DF808EDFFF7CEFF94BF0120C3
:100B000000205DF808FB00BF4DF808EDFFF7C4FFBB
:100B100034BF012000205DF808FB00BF4FEA410C04
:100B20007FEA6C5C02D150EA013C0AD14FEA430CE7
:100B30007FEA6C5C02D152EA033C02D14FF0000024
:100B400070474FF0010070474FEA410212F5001262
:100B500015D211D56FF47873B3EB625212D94FEA04
:100B6000C12343F0004343EA505311F0004F23FAEE
:100B700002F018BF404270474FF00000704750EA43
:100B8000013005D111F0004008BF6FF00040704700
:100B90004FF00000704700BF4FEA4102B2F1E0435E
:100BA00024BFB3F5001CDCF1FE5C0DD901F0004C54
:100BB0004FEAC0024CEA5070B2F1004F40EB8300A4
:100BC00008BF20F00100704711F0804F21D113F1D0
:100BD0003872BCBF01F00040704741F480114FEA09
:100BE0005252C2F11802C2F1200C10FA0CF320FA92
:100BF00002F018BF40F001004FEAC1234FEAD323AF
:100C000003FA0CFC40EA0C0023FA02F34FEA430318
:100C1000CCE77FEA625307D150EA01331EBF4FF0A1
:100C2000FE4040F44000704701F0004040F0FE40BC
:100C300040F40000704700BF53B94AB9002908BF0B
:100C400000281CBF4FF0FF314FF0FF3000F072B9A9
:100C5000ADF1080C6DE904CE00F006F8DDF804E013
:100C6000DDE9022304B070472DE9F047089E0446F1
:100C70008846002B4BD18A42154667D9B2FA82F2D8
:100C80004AB1C2F1200701FA02F320FA07F79540B2
:100C900047EA030894404FEA154E230CB8FBFEF7D1
:100CA0001FFA85FC0EFB178843EA084307FB0CF18B
:100CB000994209D9EB1807F1FF3080F01B81994266
:100CC00040F21881023F2B445B1AA4B2B3FBFEF042
:100CD0000EFB103344EA034400FB0CFCA44509D985
:100CE0002C1900F1FF3380F00781A44540F2048104
:100CF00002382C4440EA0740A4EB0C0400271EB144
:100D0000D4400023C6E900433946BDE8F0878B4252
:100D100009D9002E00F0EB800027C6E90001384613
:100D20003946BDE8F087B3FA83F7002F47D18B42ED
:100D300002D3824200F2FA80841A61EB030301209D
:100D40009846002EE0D0C6E90048DDE702B9FFDE94
:100D5000B2FA82F2002A40F08F80491B4FEA154E0A
:100D60001FFA85F80127B1FBFEFC230C0EFB1C11BA
:100D700043EA014308FB0CF1994207D9EB180CF147
:100D8000FF3002D2994200F2CD808446591AA3B2B4
:100D9000B1FBFEF00EFB101443EA044408FB00F81C
:100DA000A04507D92C1900F1FF3302D2A04500F26B
:100DB000B6801846A4EB080440EA0C409FE7C7F150
:100DC000200CBB4022FA0CFE4EEA030E01FA07F497
:100DD00020FA0CF521FA0CF34FEA1E482543B3FB29
:100DE000F8F92C0C08FB19331FFA8EFA44EA034376
:100DF00009FB0AF49C4202FA07F200FA07F10BD948
:100E00001EEB030309F1FF3080F087809C4240F223
:100E10008480A9F1020973441B1BADB2B3FBF8F047
:100E200008FB103345EA034400FB0AFAA24508D93F
:100E30001EEB040400F1FF336BD2A24569D90238DE
:100E4000744440EA0940A0FB0289A4EB0A044C4523
:100E5000C2464B4654D351D0002E69D0B1EB0A059F
:100E600064EB030404FA0CFCFD40FC404CEA05056D
:100E7000C6E90054002747E7C2F1200320FA03F730
:100E8000954001FA02F021FA03F34FEA154E384378
:100E9000010CB3FBFEF71FFA85F80EFB173341EA8E
:100EA000034107FB08F38B4204FA02F407D96918DF
:100EB00007F1FF3C2FD28B422DD9023F2944CB1A98
:100EC00081B2B3FBFEF00EFB103341EA034100FB9D
:100ED00008F38B4207D9691800F1FF3C17D28B4207
:100EE00015D902382944C91A40EA07473BE7374673
:100EF000304609E70746E7E61846FBE64145ABD230
:100F0000B8EB020A69EB0E0201381346A4E760460B
:100F1000E9E7184695E76746D1E781467CE702385E
:100F20002C4447E7ACF1020C2B442FE7384608E786
:100F30003746E9E6704700BF80B500AF0E4B1B682F
:100F40000D4A43F4007313600B4B1B680A4A43F4C9
:100F500080631360084B1B68074A43F48073136077
:100F6000032000F007FD002000F008F80FF03AFC25
:100F70000023184680BD00BF003C024080B582B00F
:100F800000AF7860124B1A68124B1B7819464FF469
:100F90007A73B3FBF1F3B2FBF3F3184600F01FFDD5
:100FA0000346002B01D001230EE07B680F2B0AD8EB
:100FB000002279684FF0FF3000F0E7FC064A7B68BA
:100FC0001360002300E0012318460837BD4680BDAA
:100FD00080000020040000200000002080B400AF4A
:100FE000064B1B781A46064B1B681344044A1360D1
:100FF00000BFBD465DF8047B704700BF04000020C1
:101000002001002080B400AF034B1B681846BD468A
:101010005DF8047B704700BF2001002080B584B0DC
:1010200000AF7860FFF7EEFFB8607B68FB60FB689D
:10103000B3F1FF3F05D0094B1B781A46FB681344F8
:10104000FB6000BFFFF7DEFF0246BB68D31AFA68F9
:101050009A42F7D800BF1037BD4680BD040000207B
:1010600080B584B000AF78600023FB737B68002BF1
:1010700001D1012333E07B681B6C002B09D1786818
:101080000FF0D8FB7B6800225A647B68002283F84B
:101090003C207B681B6C03F01003002B18D17B688D
:1010A0001B6C23F4885323F0020343F002027B6895
:1010B0001A64786800F092FA7B6800225A647B68B0
:1010C0001B6C23F0030343F001027B681A6401E008
:1010D0000123FB737B68002283F83C20FB7B1846CE
:1010E0001037BD4680BD000080B485B000AF786089
:1010F0000023BB607B6893F83C30012B01D10223B5
:10110000A5E07B68012283F83C207B681B689B6814
:1011100003F00103012B18D07B681B689A687B6879
:101120001B6842F001029A604C4B1B684C4AA2FBC0
:1011300003239A0C13465B001344BB6002E0BB68B8
:10114000013BBB60BB68002BF9D17B681B689B68C7
:1011500003F00103012B79D17B681B6C23F4E0635E
:1011600023F0010343F480727B681A647B681B6878
:101170005B6803F48063002B07D07B681B6C23F44F
:10118000405343F480527B681A647B681B6C03F401
:101190008053B3F5805F06D17B685B6C23F0060259
:1011A0007B685A6402E07B6800225A647B680022F4
:1011B00083F83C202B4BFB607B681B686FF022029E
:1011C0001A60FB685B6803F01F03002B2AD17B6861
:1011D0001B68254A934215D07B681B68234A9342BB
:1011E00005D1204B5B6803F01F03002B0AD07B68FE
:1011F0001B681F4A934229D11A4B5B6803F01F03F7
:101200000F2B23D87B681B689B6803F04053002B8F
:101210001CD17B681B689A687B681B6842F080421F
:101220009A6013E07B681B680F4A93420ED17B687B
:101230001B689B6803F04053002B07D17B681B6839
:101240009A687B681B6842F080429A6000231846C7
:101250001437BD465DF8047B704700BF8000002056
:1012600083DE1B4300230140002001400021014098
:101270000022014080B584B000AF7860396000235F
:10128000FB607B681B689B6803F48063B3F5806F29
:1012900013D17B681B689B6803F48073B3F5807F70
:1012A0000BD17B681B6C43F020027B681A647B685F
:1012B000002283F83C2001235CE0FFF7A3FEF860E6
:1012C0001AE03B68B3F1FF3F16D03B68002B07D014
:1012D000FFF798FE0246FB68D31A3A689A420BD28F
:1012E0007B681B6C43F004027B681A647B680022F5
:1012F00083F83C2003233DE07B681B681B6803F0F8
:101300000203022BDDD17B681B686FF012021A60AA
:101310007B681B6C43F400727B681A647B681B68F3
:101320009B6803F04053002B23D17B681B7E002B6E
:101330001FD17B681B68DB6A03F47003002B06D0A7
:101340007B681B689B6803F48063002B11D17B686A
:101350001B6C23F480727B681A647B681B6C03F43B
:101360008053002B05D17B681B6C43F001027B6826
:101370001A64002318461037BD4680BD80B483B080
:1013800000AF78607B681B68DB6C18460C37BD4685
:101390005DF8047B7047000080B485B000AF7860D2
:1013A00039600023BB607B6893F83C30012B01D18E
:1013B000022305E17B68012283F83C203B681B681F
:1013C000092B25D97B681B68D9683B681B689BB2D1
:1013D0001A4613465B0013441E3B072202FA03F32E
:1013E000DA437B681B680A40DA607B681B68D9684F
:1013F0003B689A683B681B689BB2184603465B00D3
:1014000003441E3B9A407B681B680A43DA6022E073
:101410007B681B6819693B681B689BB21A461346B8
:101420005B001344072202FA03F3DA437B681B686C
:101430000A401A617B681B6819693B689A683B68B7
:101440001B689BB2184603465B0003449A407B68C6
:101450001B680A431A613B685B68062B24D87B68CB
:101460001B68596B3B685A6813469B001344053B45
:101470001F2202FA03F3DA437B681B680A405A63AF
:101480007B681B68596B3B681B689BB218463B68BE
:101490005A6813469B001344053B00FA03F27B682D
:1014A0001B680A435A634CE03B685B680C2B24D8EA
:1014B0007B681B68196B3B685A6813469B00134492
:1014C000233B1F2202FA03F3DA437B681B680A40BE
:1014D0001A637B681B68196B3B681B689BB21846D4
:1014E0003B685A6813469B001344233B00FA03F2FF
:1014F0007B681B680A431A6323E07B681B68D96A10
:101500003B685A6813469B001344413B1F2202FA72
:1015100003F3DA437B681B680A40DA627B681B6866
:10152000D96A3B681B689BB218463B685A681346E9
:101530009B001344413B00FA03F27B681B680A439B
:10154000DA62224BFB607B681B68214A934209D117
:101550003B681B68122B05D1FB685B6843F4800273
:10156000FB685A607B681B68194A934223D13B6829
:101570001B68102B03D03B681B68112B1BD1FB6829
:101580005B6843F40002FB685A603B681B68102BE1
:1015900011D1104B1B68104AA2FB03239A0C13466F
:1015A0009B0013445B00BB6002E0BB68013BBB6077
:1015B000BB68002BF9D17B68002283F83C20002314
:1015C00018461437BD465DF8047B70470023014080
:1015D000002001408000002083DE1B4380B485B0E2
:1015E00000AF7860794BFB60FB685B6823F44032A6
:1015F000FB685A60FB685A687B685B681A43FB6843
:101600005A607B681B685A687B681B6822F480728A
:101610005A607B681B6859687B681B691A027B6883
:101620001B680A435A607B681B685A687B681B68A2
:1016300022F040725A607B681B6859687B689A6820
:101640007B681B680A435A607B681B689A687B68E2
:101650001B6822F400629A607B681B6899687B684B
:10166000DA687B681B680A439A607B689B6A584A01
:10167000934222D07B681B689A687B681B6822F0C3
:1016800070629A607B681B6899687B689A6A7B685D
:101690001B680A439A607B681B689A687B681B68B2
:1016A00022F040529A607B681B6899687B68DA6A0E
:1016B0007B681B680A439A600FE07B681B689A6826
:1016C0007B681B6822F070629A607B681B689A686E
:1016D0007B681B6822F040529A607B681B689A689E
:1016E0007B681B6822F002029A607B681B6899681D
:1016F0007B681B7E5A007B681B680A439A607B6884
:1017000093F82030002B1BD07B681B685A687B68DD
:101710001B6842F400625A607B681B685A687B68E9
:101720001B6822F460425A607B681B6859687B68BA
:101730005B6A013B5A037B681B680A435A6007E0F7
:101740007B681B685A687B681B6822F400625A60D9
:101750007B681B68DA6A7B681B6822F47002DA62B5
:101760007B681B68D96A7B68DB69013B1A057B686B
:101770001B680A43DA627B681B689A687B681B688F
:1017800022F400729A607B681B6899687B6893F802
:1017900030305A027B681B680A439A607B681B687A
:1017A0009A687B681B6822F480629A607B681B6879
:1017B00099687B685B699A027B681B680A439A6038
:1017C00000BF1437BD465DF8047B7047002301401D
:1017D0000100000F80B485B000AF78607B6803F033
:1017E0000703FB600C4BDB68BB60BA684FF6FF0376
:1017F0001340BB60FB681A02BB68134343F0BF632E
:1018000043F40033BB60044ABB68D36000BF1437A5
:10181000BD465DF8047B704700ED00E080B400AF8A
:10182000044BDB681B0A03F007031846BD465DF84E
:10183000047B704700ED00E080B483B000AF034646
:10184000FB7197F90730002B0BDBFB7903F01F02CC
:10185000074997F907305B09012000FA02F241F8C5
:10186000232000BF0C37BD465DF8047B704700BFE6
:1018700000E100E080B483B000AF03463960FB7143
:1018800097F90730002B0ADB3B68DAB20C4997F96D
:1018900007301201D2B20B4483F800230AE03B6800
:1018A000DAB20849FB7903F00F03043B1201D2B20C
:1018B0000B441A7600BF0C37BD465DF8047B7047B9
:1018C00000E100E000ED00E080B489B000AFF86016
:1018D000B9607A60FB6803F00703FB61FB69C3F141
:1018E0000703042B28BF0423BB61FB690433062BC9
:1018F00002D9FB69033B00E000237B614FF0FF321C
:10190000BB6902FA03F3DA43BB681A407B699A4069
:101910004FF0FF317B6901FA03F3D9437B680B4039
:10192000134318462437BD465DF8047B704700001A
:1019300080B582B000AF78607B68013BB3F1807FF7
:1019400001D301230FE00A4A7B68013B53600F215A
:101950004FF0FF30FFF78EFF054B00229A60044BDB
:1019600007221A60002318460837BD4680BD00BF15
:1019700010E000E080B582B000AF78607868FFF7D3
:1019800029FF00BF0837BD4680BD80B586B000AFD7
:101990000346B9607A60FB7300237B61FFF73EFF6B
:1019A00078617A68B9687869FFF78EFF024697F91F
:1019B0000F3011461846FFF75DFF00BF1837BD46D0
:1019C00080BD80B582B000AF0346FB7197F9073048
:1019D0001846FFF731FF00BF0837BD4680BD80B510
:1019E00082B000AF78607868FFF7A2FF0346184620
:1019F0000837BD4680BD000080B586B000AFF860F6
:101A0000B960C7E900230123FB75234B1B7E012B23
:101A100001D102233BE0204B01221A764CF25030D8
:101A200000F070F80346FB75FB7D002B2BD1FB68A3
:101A3000002B05D13B781946B86800F017F916E07D
:101A4000FB68012B05D13B881946B86800F0EAF81D
:101A50000DE0FB68022B05D13B681946B86800F021
:101A6000BFF804E0D7E90023B86800F08BF84CF227
:101A7000503000F047F80346FB75084B1B69074AD6
:101A800023F001031361044B00221A76FB7D1846F4
:101A90001837BD4680BD00BF24010020003C024035
:101AA00080B483B000AF0023FB710B4B1B69002B8C
:101AB0000BDA094B094A5A60074B094A5A60064B30
:101AC0001B69002B01DA0123FB71FB7918460C37E7
:101AD000BD465DF8047B7047003C0240230167452A
:101AE000AB89EFCD80B400AF054B1B69044A43F0CE
:101AF0000043136100231846BD465DF8047B704720
:101B0000003C024080B584B000AF78600023FB60E9
:101B10001A4B0022DA61FFF775FAF86010E07B6873
:101B2000B3F1FF3F0CD07B68002B07D0FFF76AFAB8
:101B30000246FB68D31A7A689A4201D2032319E05D
:101B40000F4BDB6803F48033002BE8D10C4BDB68D0
:101B500003F00103002B02D0094B0122DA60084B8D
:101B6000DB6803F0F203002B03D000F0A1F801239F
:101B700000E0002318461037BD4680BD2401002038
:101B8000003C024090B484B000AFF860C7E9002385
:101B9000124B1B69114A23F4407313610F4B1B69ED
:101BA0000E4A43F4407313610C4B1B690B4A43F01C
:101BB00001031361FB683A681A60D7E900124FF01D
:101BC00000034FF0000413000024FA68043213608D
:101BD00000BF1037BD4690BC704700BF003C0240BC
:101BE00080B483B000AF786039600D4B1B690C4A3C
:101BF00023F4407313610A4B1B69094A43F40073D1
:101C00001361074B1B69064A43F0010313617B68AC
:101C10003A681A6000BF0C37BD465DF8047B704718
:101C2000003C024080B483B000AF78600B467B80FC
:101C30000D4B1B690C4A23F4407313610A4B1B695B
:101C4000094A43F480731361074B1B69064A43F04A
:101C5000010313617B687A881A8000BF0C37BD4688
:101C60005DF8047B704700BF003C024080B483B045
:101C700000AF78600B46FB700C4B1B690B4A23F4DA
:101C800040731361094B094A1B691361074B1B69B8
:101C9000064A43F0010313617B68FA781A7000BFAB
:101CA0000C37BD465DF8047B704700BF003C024026
:101CB00080B400AF274BDB6803F01003002B08D083
:101CC000254BDB6943F01003234AD361214B1022DB
:101CD000DA60204BDB6803F02003002B08D01E4B9A
:101CE000DB6943F008031C4AD3611A4B2022DA60F7
:101CF000184BDB6803F04003002B08D0164BDB6960
:101D000043F00403144AD361124B4022DA60114BB2
:101D1000DB6803F08003002B08D00F4BDB6943F036
:101D200002030D4AD3610B4B8022DA60094BDB685A
:101D300003F00203002B08D0074BDB6943F02003BC
:101D4000054AD361034B0222DA6000BFBD465DF84D
:101D5000047B7047003C02402401002080B584B021
:101D600000AF786039600123FB730023BB60314B07
:101D70001B7E012B01D1022358E02E4B01221A7643
:101D80004CF25030FFF7BEFE0346FB73FB7B002B8B
:101D900048D13B684FF0FF321A607B681B68012B0B
:101DA00015D17B681B69DAB27B685B6819461046FF
:101DB00000F044F84CF25030FFF7A4FE0346FB73EA
:101DC0001D4B1B691C4A23F00403136128E07B6848
:101DD0009B68BB601CE07B681B69DBB21946B86876
:101DE00000F050F84CF25030FFF78CFE0346FB73C6
:101DF000114B1B69104A23F0FA031361FB7B002B84
:101E000003D03B68BA681A600AE0BB680133BB6064
:101E10007B68DA687B689B681344BA689A42DAD3B5
:101E200000F078F8034B00221A76FB7B1846103737
:101E3000BD4680BD24010020003C024080B483B038
:101E400000AF03463960FB710D4B1B690C4A23F44C
:101E5000407313610A4B1B69094A43F00403136181
:101E6000074B1A69FB791B021343054A43F480337D
:101E7000136100BF0C37BD465DF8047B704700BF9F
:101E8000003C024080B485B000AF78600B46FB7028
:101E90000023FB60FB78002B02D10023FB6010E0E5
:101EA000FB78012B03D14FF48073FB6009E0FB78D2
:101EB000022B03D14FF40073FB6002E04FF4407338
:101EC000FB60134B1B69124A23F440731361104BE0
:101ED0001A690F49FB6813430B610D4B1B690C4AD0
:101EE00023F0F80313610A4B1A697B68DB00134384
:101EF000074A43F002031361054B1B69044A43F48C
:101F00008033136100BF1437BD465DF8047B704712
:101F1000003C024080B400AF204B1B6803F4007308
:101F2000002B17D01D4B1B681C4A23F40073136051
:101F30001A4B1B68194A43F400631360174B1B6864
:101F4000164A23F400631360144B1B68134A43F4CE
:101F500000731360114B1B6803F48063002B17D0D0
:101F60000E4B1B680D4A23F4806313600B4B1B68F8
:101F70000A4A43F480531360084B1B68074A23F452
:101F800080531360054B1B68044A43F4806313605D
:101F900000BFBD465DF8047B704700BF003C0240B7
:101FA00080B489B000AF7860396000237B61002382
:101FB0003B610023BB610023FB616BE10122FB69F4
:101FC00002FA03F37B613B681B687A6913403B614B
:101FD0003A697B699A4240F05A813B685B68022B00
:101FE00003D03B685B68122B23D1FB69DA087B685E
:101FF000083253F82230BB61FB6903F007039B00F2
:102000000F2202FA03F3DB43BA691340BB613B685A
:102010001A69FB6903F007039B0002FA03F3BA692C
:102020001343BB61FB69DA087B680832B96943F87E
:1020300022107B681B68BB61FB695B00032202FA0C
:1020400003F3DB43BA691340BB613B685B6803F091
:102050000302FB695B0002FA03F3BA691343BB6135
:102060007B68BA691A603B685B68012B0BD03B68E0
:102070005B68022B07D03B685B68112B03D03B6881
:102080005B68122B30D17B689B68BB61FB695B008E
:10209000032202FA03F3DB43BA691340BB613B68D6
:1020A000DA68FB695B0002FA03F3BA691343BB61A8
:1020B0007B68BA699A607B685B68BB610122FB69D7
:1020C00002FA03F3DB43BA691340BB613B685B6808
:1020D0001B0903F00102FB6902FA03F3BA69134317
:1020E000BB617B68BA695A607B68DB68BB61FB696E
:1020F0005B00032202FA03F3DB43BA691340BB61BE
:102100003B689A68FB695B0002FA03F3BA69134300
:10211000BB617B68BA69DA603B685B6803F0805337
:10212000002B00F0B4800023FB605F4B5B6C5E4AC9
:1021300043F4804353645C4B5B6C03F48043FB606B
:10214000FB685A4AFB699B08023352F82330BB6193
:10215000FB6903F003039B000F2202FA03F3DB4346
:10216000BA691340BB617B68514A93422BD07B68AC
:10217000504A934225D07B684F4A93421FD07B68D8
:102180004E4A934219D07B684D4A934213D07B68E4
:102190004C4A93420DD07B684B4A934207D07B68F0
:1021A0004A4A934201D107230EE008230CE006239C
:1021B0000AE0052308E0042306E0032304E00223E9
:1021C00002E0012300E00023FA6902F0030292001A
:1021D0009340BA691343BB613449FB699B080233DE
:1021E000BA6941F823203A4B1B68BB613B69DB436A
:1021F000BA691340BB613B685B6803F48033002B12
:1022000003D0BA693B691343BB61314ABB691360B0
:102210002F4B5B68BB613B69DB43BA691340BB6111
:102220003B685B6803F40033002B03D0BA693B6959
:102230001343BB61264ABB695360254B9B68BB6156
:102240003B69DB43BA691340BB613B685B6803F4DD
:102250008013002B03D0BA693B691343BB611C4A4E
:10226000BB6993601A4BDB68BB613B69DB43BA69AE
:102270001340BB613B685B6803F40013002B03D081
:10228000BA693B691343BB61114ABB69D360FB69FF
:102290000133FB61FB690F2B7FF690AE00BF243743
:1022A000BD465DF8047B70470038024000380140AD
:1022B000000002400004024000080240000C0240FE
:1022C000001002400014024000180240001C0240AE
:1022D000003C014080B485B000AF78600B467B8045
:1022E0007B681A697B881340002B02D00123FB73A3
:1022F00001E00023FB73FB7B18461437BD465DF8F5
:10230000047B704780B483B000AF78600B467B805D
:1023100013467B707B78002B03D07A887B689A61A8
:1023200003E07B881A047B689A6100BF0C37BD46C6
:102330005DF8047B7047000080B586B000AF786020
:102340007B68002B01D101232DE27B681B6803F021
:102350000103002B75D0A34B9B6803F00C03042BE7
:102360000CD0A04B9B6803F00C03082B12D19D4BA3
:102370005B6803F48003B3F5800F0BD1994B1B68A6
:1023800003F40033002B5BD07B685B68002B57D1D4
:10239000012308E27B685B68B3F5803F06D1914B6F
:1023A0001B68904A43F4803313601DE07B685B68D0
:1023B000B3F5A02F0CD18B4B1B688A4A43F48023C2
:1023C0001360884B1B68874A43F4803313600BE02B
:1023D000844B1B68834A23F480331360814B1B6852
:1023E000804A23F4802313607B685B68002B13D042
:1023F000FEF708FE386108E0FEF704FE02463B697E
:10240000D31A642B01D90323CDE1764B1B6803F467
:102410000033002BF0D014E0FEF7F4FD386108E043
:10242000FEF7F0FD02463B69D31A642B01D9032362
:10243000B9E16C4B1B6803F40033002BF0D100E0D2
:1024400000BF7B681B6803F00203002B63D0654B61
:102450009B6803F00C03002B0BD0624B9B6803F0CE
:102460000C03082B1CD15F4B5B6803F48003002B2B
:1024700016D15C4B1B6803F00203002B05D07B6870
:10248000DB68012B01D001238DE1564B1B6823F043
:10249000F8027B681B69DB00524913430B603AE08A
:1024A0007B68DB68002B20D04F4B01221A60FEF7BF
:1024B000A9FD386108E0FEF7A5FD02463B69D31A85
:1024C000022B01D903236EE1464B1B6803F0020384
:1024D000002BF0D0434B1B6823F0F8027B681B698C
:1024E000DB00404913430B6015E03F4B00221A60AC
:1024F000FEF788FD386108E0FEF784FD02463B697F
:10250000D31A022B01D903234DE1364B1B6803F08C
:102510000203002BF0D17B681B6803F00803002B3B
:1025200030D07B685B69002B16D0304B01221A60DB
:10253000FEF768FD386108E0FEF764FD02463B697E
:10254000D31A022B01D903232DE1264B5B6F03F035
:102550000203002BF0D015E0244B00221A60FEF796
:1025600051FD386108E0FEF74DFD02463B69D31A84
:10257000022B01D9032316E11A4B5B6F03F0020310
:10258000002BF0D17B681B6803F00403002B00F0E4
:10259000A0800023FB75134B1B6C03F08053002BB2
:1025A0000FD10023FB600F4B1B6C0E4A43F080538E
:1025B00013640C4B1B6C03F08053FB60FB6801231E
:1025C000FB750B4B1B6803F48073002B21D1084B68
:1025D0001B68074A43F480731360FEF713FD3861EC
:1025E00011E000BF0038024000004742800E474221
:1025F00000700040FEF706FD02463B69D31A022B2D
:1026000001D90323CFE06A4B1B6803F48073002BCE
:10261000F0D07B689B68012B06D1664B1B6F654A27
:1026200043F0010313671CE07B689B68052B0CD10A
:10263000604B1B6F5F4A43F0040313675D4B1B6FD6
:102640005C4A43F0010313670BE05A4B1B6F594A76
:1026500023F001031367574B1B6F564A23F0040303
:1026600013677B689B68002B15D0FEF7CBFC3861A5
:102670000AE0FEF7C7FC02463B69D31A41F28832F2
:10268000934201D903238EE04A4B1B6F03F00203F0
:10269000002BEED014E0FEF7B5FC38610AE0FEF73F
:1026A000B1FC02463B69D31A41F28832934201D908
:1026B000032378E03F4B1B6F03F00203002BEED1A6
:1026C000FB7D012B05D13B4B1B6C3A4A23F0805319
:1026D00013647B689B69002B64D0364B9B6803F0C6
:1026E0000C03082B5CD07B689B69022B41D1324BD9
:1026F00000221A60FEF786FC386108E0FEF782FCD3
:1027000002463B69D31A022B01D903234BE0294B24
:102710001B6803F00073002BF0D17B68DA697B68DB
:102720001B6A1A437B685B6A9B011A437B689B6A3E
:102730005B08013B1B041A437B68DB6A1B061D49CF
:1027400013434B601C4B01221A60FEF75BFC38619F
:1027500008E0FEF757FC02463B69D31A022B01D969
:10276000032320E0134B1B6803F00073002BF0D011
:1027700018E0114B00221A60FEF744FC386108E0B3
:10278000FEF740FC02463B69D31A022B01D9032312
:1027900009E0084B1B6803F00073002BF0D101E047
:1027A000012300E0002318461837BD4680BD00BF56
:1027B00000700040003802406000474280B584B09D
:1027C00000AF786039607B68002B01D10123CAE03B
:1027D000674B1B6803F00F033A689A420CD9644BAD
:1027E0003A68D2B21A70624B1B6803F00F033A6862
:1027F0009A4201D00123B6E07B681B6803F0020314
:10280000002B20D07B681B6803F00403002B05D04D
:10281000584B9B68574A43F4E05393607B681B68AE
:1028200003F00803002B05D0524B9B68514A43F438
:10283000604393604F4B9B6823F0F0027B689B687A
:102840004C4913438B607B681B6803F00103002B2A
:1028500044D07B685B68012B07D1464B1B6803F4AF
:102860000033002B19D101237DE07B685B68022BCC
:1028700003D07B685B68032B07D13E4B1B6803F0DA
:102880000073002B09D101236DE03A4B1B6803F064
:102890000203002B01D1012365E0364B9B6823F036
:1028A00003027B685B68334913438B60FEF7AAFB26
:1028B000F8600AE0FEF7A6FB0246FB68D31A41F275
:1028C0008832934201D903234DE02A4B9B6803F0E1
:1028D0000C027B685B689B009A42EBD1244B1B681F
:1028E00003F00F033A689A420CD2214B3A68D2B2F5
:1028F0001A701F4B1B6803F00F033A689A4201D00D
:10290000012330E07B681B6803F00403002B08D030
:10291000184B9B6823F4E0527B68DB68154913432E
:102920008B607B681B6803F00803002B09D0114BF8
:102930009B6823F460427B681B69DB000D491343ED
:102940008B6000F01DF801460A4B9B681B0903F0E1
:102950000F03094AD35C21FA03F3084A13600020ED
:10296000FEF70CFB002318461037BD4680BD00BFA4
:10297000003C024000380240402601088000002050
:10298000F0B585B000AF00237B600023FB6000231F
:102990003B600023BB60504B9B6803F00C03042B8F
:1029A00007D0082B08D0002B40F08D804B4BBB602C
:1029B0008CE04B4BBB6089E0474B5B6803F03F0307
:1029C0007B60454B5B6803F48003002B23D0424BB4
:1029D0005B689B094FF0000440F2FF114FF00002CA
:1029E00003EA010504EA02063D4A02FB06F1002261
:1029F00002FB05F20A443A49A5FB010153181946A6
:102A00007B684FF000041A462346FEF715F903468B
:102A10000C46FB6049E0304B5B689B094FF00004BB
:102A200040F2FF114FF0000203EA010504EA02063A
:102A3000294632464FF000034FF00004540144EAA7
:102A4000D1644B0119462246491B62EB06024FF046
:102A500000034FF00004940144EA91648B015B1A77
:102A600064EB02044FF000014FF00002E20042EA82
:102A70005372D9000B4614465B1944EB06044FF021
:102A800000014FF00002A20242EA935299020B4663
:102A90001446184621467B684FF000041A46234628
:102AA000FEF7CAF803460C46FB600B4B5B681B0C39
:102AB00003F0030301335B003B60FA683B68B2FB41
:102AC000F3F3BB6002E0054BBB6000BFBB68184678
:102AD0001437BD46F0BD00BF003802400024F400AA
:102AE00040787D0180B400AF034B1B681846BD469B
:102AF0005DF8047B704700BF8000002080B500AF08
:102B0000FFF7F0FF0146054B9B689B0A03F00703A4
:102B1000034AD35C21FA03F3184680BD0038024013
:102B20005026010880B500AFFFF7DCFF0146054BDA
:102B30009B685B0B03F00703034AD35C21FA03F3A2
:102B4000184680BD003802405026010880B582B08A
:102B500000AF78607B68002B01D1012356E07B68D1
:102B600000229A627B6893F85130DBB2002B06D1C9
:102B70007B68002283F8502078680DF09FFE7B6808
:102B8000022283F851207B681B681A687B681B68E7
:102B900022F040021A607B685A687B689B681A437F
:102BA0007B68DB681A437B681B691A437B685B6937
:102BB0001A437B689B6903F400731A437B68DB69E3
:102BC0001A437B681B6A42EA03017B689A6A7B6846
:102BD0001B680A431A607B689B691B0C03F00401A5
:102BE0007B685A6A7B681B680A435A607B681B686B
:102BF000DA697B681B6822F40062DA617B68002274
:102C00005A657B68012283F8512000231846083753
:102C1000BD4680BD80B588B000AFF860B9603B604C
:102C20001346FB800023FB77FB6893F85030012BA1
:102C300001D102231EE1FB68012283F85020FEF738
:102C4000E1F9B861FB88FB82FB6893F85130DBB295
:102C5000012B02D00223FB7703E1BB68002B02D0DB
:102C6000FB88002B02D10123FB77FAE0FB680322EB
:102C700083F85120FB6800225A65FB68BA681A6322
:102C8000FB68FA889A86FB68FA88DA86FB68002275
:102C90009A63FB6800229A87FB680022DA87FB6848
:102CA00000225A64FB6800221A64FB689B68B3F533
:102CB000004F07D1FB681B681A68FB681B6842F469
:102CC00080421A60FB681B681B6803F04003402BBE
:102CD00007D0FB681B681A68FB681B6842F040025B
:102CE0001A60FB68DB68B3F5006F4BD1FB685B686B
:102CF000002B02D0FB8A012B3ED1FB681B6B1A888C
:102D0000FB681B68DA60FB681B6B9A1CFB681A6324
:102D1000FB68DB8E9BB2013B9AB2FB68DA862BE044
:102D2000FB681B689B6803F00203022B12D1FB684F
:102D30001B6B1A88FB681B68DA60FB681B6B9A1CAC
:102D4000FB681A63FB68DB8E9BB2013B9AB2FB689F
:102D5000DA8611E0FEF756F90246BB69D31A3A68E3
:102D60009A4203D83B68B3F1FF3F02D13B68002B86
:102D700002D10323FB7774E0FB68DB8E9BB2002B50
:102D8000CED14CE0FB685B68002B02D0FB8A012BA4
:102D900040D1FB681A6BFB681B680C3312781A7001
:102DA000FB681B6B5A1CFB681A63FB68DB8E9BB2CB
:102DB000013B9AB2FB68DA862CE0FB681B689B68D3
:102DC00003F00203022B13D1FB681A6BFB681B682C
:102DD0000C3312781A70FB681B6B5A1CFB681A6361
:102DE000FB68DB8E9BB2013B9AB2FB68DA8611E08E
:102DF000FEF708F90246BB69D31A3A689A4203D82B
:102E00003B68B3F1FF3F02D13B68002B02D10323A3
:102E1000FB7726E0FB68DB8E9BB2002BCDD1BA6935
:102E20003968F86800F0A4FB0346002B02D0FB6869
:102E300020225A65FB689B68002B0AD100233B6166
:102E4000FB681B68DB683B61FB681B689B683B6138
:102E50003B69FB685B6D002B02D00123FB7700E030
:102E600000BFFB68012283F85120FB68002283F831
:102E70005020FB7F18462037BD4680BD80B588B006
:102E800002AFF860B9603B601346FB800023FB751E
:102E9000FB685B68B3F5827F12D1FB689B68002BEF
:102EA0000ED1FB68042283F85120FA883B68009316
:102EB0001346BA68B968F86800F0E9F80346E2E03A
:102EC000FB6893F85030012B01D10223DBE0FB6853
:102ED000012283F85020FEF795F83861FB6893F8DB
:102EE0005130DBB2012B02D00223FB75C2E0BB687C
:102EF000002B02D0FB88002B02D10123FB75B9E027
:102F0000FB68042283F85120FB6800225A65FB68A5
:102F1000BA689A63FB68FA889A87FB68FA88DA8746
:102F2000FB6800221A63FB6800229A86FB68002275
:102F3000DA86FB6800221A64FB6800225A64FB6888
:102F40009B68B3F5004F07D1FB681B681A68FB68E4
:102F50001B6822F480421A60FB681B681B6803F040
:102F60004003402B07D0FB681B681A68FB681B688E
:102F700042F040021A60FB68DB68002B62D12EE051
:102F8000FB681B689B6803F00103012B15D1FB68EC
:102F90001B6803F10C02FB689B6B1278D2B21A70AB
:102FA000FB689B6B5A1CFB689A63FB68DB8F9BB2C8
:102FB000013B9AB2FB68DA8711E0FEF723F802467C
:102FC0003B69D31A3A689A4203D83B68B3F1FF3F92
:102FD00002D13B68002B02D10323FB754AE0FB685A
:102FE000DB8F9BB2002BCBD131E0FB681B689B6869
:102FF00003F00103012B13D1FB681B68DA68FB683F
:103000009B6B92B21A80FB689B6B9A1CFB689A635D
:10301000FB68DB8F9BB2013B9AB2FB68DA8711E059
:10302000FDF7F0FF02463B69D31A3A689A4203D88B
:103030003B68B3F1FF3F02D13B68002B02D1032371
:10304000FB7517E0FB68DB8F9BB2002BCDD13A6993
:103050003968F86800F027FA0346002B02D0FB68B5
:1030600020225A65FB685B6D002B02D00123FB75A3
:1030700000E000BFFB68012283F85120FB680022BA
:1030800083F85020FB7D18461837BD4680BD80B5BB
:103090008CB000AFF860B9607A607B800123FB627E
:1030A000002387F82B30FB6893F85030012B01D1B7
:1030B00002238AE1FB68012283F85020FDF7A2FF7A
:1030C0007862FB6893F8513087F82330FB685B68BF
:1030D000FB617B887B8397F82330012B0FD0FB6942
:1030E000B3F5827F07D1FB689B68002B03D197F86B
:1030F0002330042B03D0022387F82B305BE1BB681D
:10310000002B05D07B68002B02D07B88002B03D1DD
:10311000012387F82B304EE1FB6893F85130DBB286
:10312000042B03D0FB68052283F85120FB680022A2
:103130005A65FB687A689A63FB687A88DA87FB6865
:103140007A889A87FB68BA681A63FB687A88DA8695
:10315000FB687A889A86FB6800221A64FB68002262
:103160005A64FB681B681B6803F04003402B07D0C0
:10317000FB681B681A68FB681B6842F040021A6013
:10318000FB68DB68B3F5006F78D1FB685B68002BE8
:1031900002D07B8B012B66D1FB681B6B1A88FB6806
:1031A0001B68DA60FB681B6B9A1CFB681A63FB6880
:1031B000DB8E9BB2013B9AB2FB68DA8653E0FB6878
:1031C0001B689B6803F00203022B1BD1FB68DB8E9C
:1031D0009BB2002B16D0FB6A012B13D1FB681B6B33
:1031E0001A88FB681B68DA60FB681B6B9A1CFB681B
:1031F0001A63FB68DB8E9BB2013B9AB2FB68DA86EE
:103200000023FB62FB681B689B6803F00103012B32
:1032100019D1FB68DB8F9BB2002B14D0FB681B68B5
:10322000DA68FB689B6B92B21A80FB689B6B9A1CF6
:10323000FB689A63FB68DB8F9BB2013B9AB2FB6829
:10324000DA870123FB62FDF7DDFE02467B6AD31AB3
:10325000BA6B9A4207D8BB6BB3F1FF3F03D003238D
:1032600087F82B30A7E0FB68DB8E9BB2002BA6D142
:10327000FB68DB8F9BB2002BA1D17CE0FB685B6815
:10328000002B02D07B8B012B6BD1FB681A6BFB6888
:103290001B680C3312781A70FB681B6B5A1CFB6896
:1032A0001A63FB68DB8E9BB2013B9AB2FB68DA863D
:1032B00057E0FB681B689B6803F00203022B1CD1DC
:1032C000FB68DB8E9BB2002B17D0FB6A012B14D15D
:1032D000FB681A6BFB681B680C3312781A70FB686A
:1032E0001B6B5A1CFB681A63FB68DB8E9BB2013BAD
:1032F0009AB2FB68DA860023FB62FB681B689B6856
:1033000003F00103012B19D1FB68DB8F9BB2002B6B
:1033100014D0FB681B68DA68FB689B6BD2B21A702A
:10332000FB689B6B5A1CFB689A63FB68DB8F9BB244
:10333000013B9AB2FB68DA870123FB62FDF762FE6C
:1033400002467B6AD31ABA6B9A4203D8BB6BB3F1BD
:10335000FF3F02D1BB6B002B03D1032387F82B3037
:1033600029E0FB68DB8E9BB2002BA2D1FB68DB8FD0
:103370009BB2002B9DD17A6AB96BF86800F0F8F81F
:103380000346002B06D0012387F82B30FB68202250
:103390005A6510E0FB689B68002B0BD100237B6112
:1033A000FB681B68DB687B61FB681B689B687B6153
:1033B0007B6900E000BFFB68012283F85120FB68B5
:1033C000002283F8502097F82B3018463037BD463E
:1033D00080BD80B584B000AFF860B9603B60134633
:1033E000FB714CE03B68B3F1FF3F48D0FDF70AFEAC
:1033F0000246BB69D31A3A689A4202D93B68002B4D
:103400003DD1FB681B685A68FB681B6822F0E0022C
:103410005A60FB685B68B3F5827F11D1FB689B68DB
:10342000B3F5004F04D0FB689B68B3F5806F07D1FC
:10343000FB681B681A68FB681B6822F040021A6070
:10344000FB689B6AB3F5005F0FD1FB681B681A68C5
:10345000FB681B6822F400521A60FB681B681A683C
:10346000FB681B6842F400521A60FB68012283F873
:103470005120FB68002283F8502003230FE0FB68F3
:103480001B689A68BB681340BA689A420CBF012354
:103490000023DBB21A46FB799A42A3D100231846D7
:1034A0001037BD4680BD80B586B002AFF860B96008
:1034B0007A60FB685B68B3F5827F11D1FB689B681B
:1034C000B3F5004F04D0FB689B68B3F5806F07D15C
:1034D000FB681B681A68FB681B6822F040021A60D0
:1034E000FB685B68B3F5827F2AD1FB689B68B3F504
:1034F000806F12D07B680093BB6800228021F8683F
:10350000FFF767FF0346002B2DD0FB685B6D43F090
:103510002002FB685A65032326E07B680093BB68A2
:1035200000220121F868FFF754FF0346002B1AD050
:10353000FB685B6D43F02002FB685A65032313E0D0
:103540007B680093BB6800220121F868FFF741FF08
:103550000346002B07D0FB685B6D43F02002FB683D
:103560005A65032300E0002318461037BD4680BD8E
:1035700080B588B002AFF860B9607A601B4B1B68F9
:103580001B4AA2FB03235B0D4FF47A7202FB03F389
:103590007B61FB685B68B3F5827F12D17B68009327
:1035A000BB6800228021F868FFF713FF0346002B59
:1035B00016D0FB685B6D43F02002FB685A6503235D
:1035C0000FE07B69002B0AD07B69013B7B61FB68C4
:1035D0001B689B6803F08003802BF2D000E000BFE3
:1035E000002318461837BD4680BD00BF800000206C
:1035F000819F5E1680B582B000AF78607B68002B3B
:1036000001D101231DE07B6893F83D30DBB2002B34
:1036100006D17B68002283F83C2078680DF096F98B
:103620007B68022283F83D207B681A687B6804333C
:103630001946104600F070FC7B68012283F83D209B
:10364000002318460837BD4680BD80B485B000AF62
:1036500078607B681B68DA687B681B6842F001024F
:10366000DA607B681B689B6803F00703FB60FB68FC
:10367000062B07D07B681B681A687B681B6842F0C2
:1036800001021A60002318461437BD465DF8047B1A
:10369000704780B582B000AF78607B68002B01D1A5
:1036A00001231DE07B6893F83D30DBB2002B06D18F
:1036B0007B68002283F83C20786800F015F87B686E
:1036C000022283F83D207B681A687B680433194620
:1036D000104600F021FC7B68012283F83D20002386
:1036E00018460837BD4680BD80B483B000AF78600F
:1036F00000BF0C37BD465DF8047B704780B584B0D1
:1037000000AF786039607B681B6801223968184611
:1037100000F0ECFE7B681B68154A934204D07B687E
:103720001B68144A934201D1012300E00023002BBF
:1037300007D07B681B685A6C7B681B6842F40042A8
:103740005A647B681B689B6803F00703FB60FB6897
:10375000062B07D07B681B681A687B681B6842F0E1
:1037600001021A60002318461037BD4680BD00BF15
:10377000000001400004014080B582B000AF7860D5
:1037800039607B681B6800223968184600F0AEFE7D
:103790007B681B68224A934204D07B681B68214ADD
:1037A000934201D1012300E00023002B17D07B6856
:1037B0001B681A6A41F211131340002B0FD17B686A
:1037C0001B681A6A40F244431340002B07D17B6800
:1037D0001B685A6C7B681B6822F400425A647B6841
:1037E0001B681A6A41F211131340002B0FD17B683A
:1037F0001B681A6A40F244431340002B07D17B68D0
:103800001B681A687B681B6822F001021A607B68DB
:10381000012283F83D20002318460837BD4680BDAD
:10382000000001400004014080B586B000AF786020
:1038300039607B68002B01D1012383E07B6893F81A
:103840003D30DBB2002B06D17B68002283F83C20A0
:1038500078680DF0CDF87B68022283F83D207B6804
:103860001B689B687A68126823F4804323F007037F
:1038700093607B681A687B6804331946104600F031
:103880004BFB7B681B689B687B617B681B689B6943
:103890003B617B681B681B6AFB603B681B687A693D
:1038A00013437B613B6923F4407323F003033B61C3
:1038B0003B689A683B689B691B0213433A69134350
:1038C0003B613B6923F4406323F00C033B613B699C
:1038D00023F4704323F0F0033B613B68DA683B68F4
:1038E000DB691B0213433A6913433B613B681B6965
:1038F0001A013B681B6A1B0313433A6913433B617C
:10390000FB6823F02203FB60FB6823F08803FB6065
:103910003B685A683B685B691B011343FA681343B1
:10392000FB607B681B687A699A607B681B683A69F0
:103930009A617B681B68FA681A627B68012283F8C7
:103940003D20002318461837BD4680BD80B582B0A3
:1039500000AF786039603B68002B02D0042B08D0A0
:103960000FE07B681B6801220021184600F0BEFDB5
:1039700016E07B681B6801220421184600F0B6FDA2
:103980000EE07B681B6801220021184600F0AEFDA6
:103990007B681B6801220421184600F0A7FD00BFC8
:1039A0007B681B681A687B681B6842F001021A601A
:1039B000002318460837BD4680BD80B582B000AFF1
:1039C00078607B681B681B6903F00203022B22D11D
:1039D0007B681B68DB6803F00203022B1BD17B684A
:1039E0001B686FF002021A617B6801221A777B68FC
:1039F0001B689B6903F00303002B03D0786800F079
:103A00006CFA05E0786800F05EFA786800F06FFA0A
:103A10007B6800221A777B681B681B6903F004032C
:103A2000042B22D17B681B68DB6803F00403042BA2
:103A30001BD17B681B686FF004021A617B6802224D
:103A40001A777B681B689B6903F44073002B03D0D3
:103A5000786800F042FA05E0786800F034FA786897
:103A600000F045FA7B6800221A777B681B681B69A7
:103A700003F00803082B22D17B681B68DB6803F086
:103A80000803082B1BD17B681B686FF008021A61C2
:103A90007B6804221A777B681B68DB6903F00303E9
:103AA000002B03D0786800F018FA05E0786800F081
:103AB0000AFA786800F01BFA7B6800221A777B68A4
:103AC0001B681B6903F01003102B22D17B681B6855
:103AD000DB6803F01003102B1BD17B681B686FF0B1
:103AE00010021A617B6808221A777B681B68DB6901
:103AF00003F44073002B03D0786800F0EEF905E082
:103B0000786800F0E0F9786800F0F1F97B6800224D
:103B10001A777B681B681B6903F00103012B0ED128
:103B20007B681B68DB6803F00103012B07D17B680E
:103B30001B686FF001021A61786807F02DFC7B6842
:103B40001B681B6903F08003802B0ED17B681B6808
:103B5000DB6803F08003802B07D17B681B686FF064
:103B600080021A61786800F035FD7B681B681B696C
:103B700003F04003402B0ED17B681B68DB6803F029
:103B80004003402B07D17B681B686FF040021A612D
:103B9000786800F0B6F97B681B681B6903F02003A6
:103BA000202B0ED17B681B68DB6803F02003202BE1
:103BB00007D17B681B686FF020021A61786800F0FB
:103BC000FFFC00BF0837BD4680BD000080B584B053
:103BD00000AFF860B9607A60FB6893F83C30012B65
:103BE00001D10223B4E0FB68012283F83C20FB688A
:103BF000022283F83D207B680C2B00F29F8001A2FB
:103C000052F823F0393C00083D3D00083D3D0008D6
:103C10003D3D0008793C00083D3D00083D3D000861
:103C20003D3D0008BB3C00083D3D00083D3D00080F
:103C30003D3D0008FB3C0008FB681B68B96818465E
:103C400000F00AFAFB681B689A69FB681B6842F07F
:103C500008029A61FB681B689A69FB681B6822F07E
:103C600004029A61FB681B689969BB681A69FB6862
:103C70001B680A439A6162E0FB681B68B9681846D2
:103C800000F05AFAFB681B689A69FB681B6842F4EB
:103C900000629A61FB681B689A69FB681B6822F4E2
:103CA00080629A61FB681B689969BB681B691A028C
:103CB000FB681B680A439A6141E0FB681B68B968AE
:103CC000184600F0AFFAFB681B68DA69FB681B68EE
:103CD00042F00802DA61FB681B68DA69FB681B685E
:103CE00022F00402DA61FB681B68D969BB681A69B3
:103CF000FB681B680A43DA6121E0FB681B68B9684E
:103D0000184600F003FBFB681B68DA69FB681B6858
:103D100042F40062DA61FB681B68DA69FB681B68C1
:103D200022F48062DA61FB681B68D969BB681B6991
:103D30001A02FB681B680A43DA6100E000BFFB68F7
:103D4000012283F83D20FB68002283F83C200023F9
:103D500018461037BD4680BD80B584B000AF78608E
:103D600039607B6893F83C30012B01D10223A6E037
:103D70007B68012283F83C207B68022283F83D2087
:103D80007B681B689B68FB60FB6823F07703FB6024
:103D9000FB6823F47F43FB607B681B68FA689A60CA
:103DA0003B681B68402B67D0402B0BD8102B73D07F
:103DB000102B02D8002B6FD078E0202B6CD0302B4A
:103DC0006AD073E0702B0DD0702B04D8502B33D0F9
:103DD000602B41D06AE0B3F5805F66D0B3F5005F39
:103DE00017D063E07B6818683B6899683B685A683D
:103DF0003B68DB6800F05AFB7B681B689B68FB60D4
:103E0000FB6843F07703FB607B681B68FA689A6085
:103E10004CE07B6818683B6899683B685A683B6867
:103E2000DB6800F043FB7B681B689A687B681B6853
:103E300042F480429A6039E07B6818683B685968B0
:103E40003B68DB681A4600F0B7FA7B681B685021B4
:103E5000184600F010FB29E07B6818683B68596839
:103E60003B68DB681A4600F0D6FA7B681B68602165
:103E7000184600F000FB19E07B6818683B68596839
:103E80003B68DB681A4600F097FA7B681B684021A4
:103E9000184600F0F0FA09E07B681A683B681B6876
:103EA0001946104600F0E7FA00E000BF7B680122E7
:103EB00083F83D207B68002283F83C2000231846CD
:103EC0001037BD4680BD80B483B000AF786000BFBE
:103ED0000C37BD465DF8047B704780B483B000AFFB
:103EE000786000BF0C37BD465DF8047B704780B436
:103EF00083B000AF786000BF0C37BD465DF8047B2F
:103F0000704780B483B000AF786000BF0C37BD4607
:103F10005DF8047B7047000080B485B000AF786026
:103F200039607B681B68FB607B68404A934213D012
:103F30007B68B3F1804F0FD07B683D4A93420BD032
:103F40007B683C4A934207D07B683B4A934203D04C
:103F50007B683A4A934208D1FB6823F07003FB6008
:103F60003B685B68FA681343FB607B682F4A9342A7
:103F70002BD07B68B3F1804F27D07B682C4A9342CB
:103F800023D07B682B4A93421FD07B682A4A9342F6
:103F90001BD07B68294A934217D07B68284A9342FA
:103FA00013D07B68274A93420FD07B68264A9342FE
:103FB0000BD07B68254A934207D07B68244A934202
:103FC00003D07B68234A934208D1FB6823F44073F3
:103FD000FB603B68DB68FA681343FB60FB6823F017
:103FE00080023B685B691343FB607B68FA681A6078
:103FF0003B689A687B68DA623B681A687B689A62F9
:104000007B680A4A934203D07B680C4A934203D1EF
:104010003B681A697B681A637B6801225A6100BF9A
:104020001437BD465DF8047B704700BF00000140B7
:104030000004004000080040000C00400004014063
:104040000040014000440140004801400018004089
:10405000001C00400020004080B487B000AF7860B2
:1040600039607B681B6A23F001027B681A627B68F7
:104070001B6A7B617B685B683B617B689B69FB605B
:10408000FB6823F07003FB60FB6823F00303FB6015
:104090003B681B68FA681343FB607B6923F00203EB
:1040A0007B613B689B687A6913437B617B68204A2C
:1040B000934203D07B681F4A93420CD17B6923F063
:1040C00008037B613B68DB687A6913437B617B692A
:1040D00023F004037B617B68154A934203D07B681D
:1040E000144A934211D13B6923F480733B613B69CD
:1040F00023F400733B613B685B693A6913433B619E
:104100003B689B693A6913433B617B683A695A6033
:104110007B68FA689A613B685A687B685A637B6877
:104120007A691A6200BF1C37BD465DF8047B704790
:10413000000001400004014080B487B000AF786007
:1041400039607B681B6A23F010027B681A627B6807
:104150001B6A7B617B685B683B617B689B69FB607A
:10416000FB6823F4E043FB60FB6823F44073FB60CF
:104170003B681B681B02FA681343FB607B6923F0F2
:1041800020037B613B689B681B017A6913437B6159
:104190007B68224A934203D07B68214A93420DD127
:1041A0007B6923F080037B613B68DB681B017A69D4
:1041B00013437B617B6923F040037B617B68174A73
:1041C000934203D07B68164A934213D13B6923F490
:1041D00080633B613B6923F400633B613B685B693F
:1041E0009B003A6913433B613B689B699B003A69BA
:1041F00013433B617B683A695A607B68FA689A614D
:104200003B685A687B689A637B687A691A6200BF68
:104210001C37BD465DF8047B704700BF00000140BD
:104220000004014080B487B000AF786039607B68DB
:104230001B6A23F480727B681A627B681B6A7B614D
:104240007B685B683B617B68DB69FB60FB6823F034
:104250007003FB60FB6823F00303FB603B681B6893
:10426000FA681343FB607B6923F400737B613B684E
:104270009B681B027A6913437B617B68214A9342E6
:1042800003D07B68204A93420DD17B6923F40063FD
:104290007B613B68DB681B027A6913437B617B6946
:1042A00023F480637B617B68164A934203D07B686A
:1042B000154A934213D13B6923F480533B613B6918
:1042C00023F400533B613B685B691B013A6913436C
:1042D0003B613B689B691B013A6913433B617B6807
:1042E0003A695A607B68FA68DA613B685A687B68A9
:1042F000DA637B687A691A6200BF1C37BD465DF8D5
:10430000047B7047000001400004014080B487B086
:1043100000AF786039607B681B6A23F480527B6849
:104320001A627B681B6A3B617B685B687B617B68A8
:10433000DB69FB60FB6823F4E043FB60FB6823F46C
:104340004073FB603B681B681B02FA681343FB6009
:104350003B6923F400533B613B689B681B033A694C
:1043600013433B617B68124A934203D07B68114A36
:10437000934209D17B6923F480437B613B685B698D
:104380009B017A6913437B617B687A695A607B6819
:10439000FA68DA613B685A687B681A647B683A6934
:1043A0001A6200BF1C37BD465DF8047B704700BF32
:1043B000000001400004014080B487B000AFF86005
:1043C000B9607A60FB681B6A7B61FB681B6A23F03B
:1043D0000102FB681A62FB689B693B613B6923F041
:1043E000F0033B617B681B013A6913433B617B69C6
:1043F00023F00A037B617A69BB6813437B61FB6826
:104400003A699A61FB687A691A6200BF1C37BD4637
:104410005DF8047B704780B487B000AFF860B96086
:104420007A60FB681B6A23F01002FB681A62FB6863
:104430009B697B61FB681B6A3B617B6923F470436A
:104440007B617B681B037A6913437B613B6923F0C3
:10445000A0033B61BB681B013A6913433B61FB68E6
:104460007A699A61FB683A691A6200BF1C37BD46D7
:104470005DF8047B704780B485B000AF7860396028
:104480007B689B68FB60FB6823F07003FB603A6805
:10449000FB68134343F00703FB607B68FA689A608C
:1044A00000BF1437BD465DF8047B704780B487B009
:1044B00000AFF860B9607A603B60FB689B687B6125
:1044C0007B6923F47F437B613B681A027B681A4354
:1044D000BB6813437A6913437B61FB687A699A600E
:1044E00000BF1C37BD465DF8047B704780B487B0C1
:1044F00000AFF860B9607A60BB6803F01F03012267
:1045000002FA03F37B61FB681A6A7B69DB431A409A
:10451000FB681A62FB681A6ABB6803F01F037968BC
:1045200001FA03F31A43FB681A6200BF1C37BD4649
:104530005DF8047B704780B485B000AF7860396067
:104540007B6893F83C30012B01D1022332E07B6879
:10455000012283F83C207B68022283F83D207B689F
:104560001B685B68FB607B681B689B68BB60FB68C3
:1045700023F07003FB603B681B68FA681343FB6021
:10458000BB6823F08003BB603B685B68BA68134379
:10459000BB607B681B68FA685A607B681B68BA68F6
:1045A0009A607B68012283F83D207B68002283F8B3
:1045B0003C20002318461437BD465DF8047B704745
:1045C00080B483B000AF786000BF0C37BD465DF8A3
:1045D000047B704780B483B000AF786000BF0C37B5
:1045E000BD465DF8047B704780B582B000AF78604F
:1045F0007B68002B01D101233FE07B6893F83930C1
:10460000DBB2002B06D17B68002283F83820786863
:104610000CF0EAFA7B68242283F839207B681B6857
:10462000DA687B681B6822F40052DA60786800F070
:104630000BF97B681B681A697B681B6822F490423F
:104640001A617B681B685A697B681B6822F02A0222
:104650005A617B681B68DA687B681B6842F4005209
:10466000DA607B680022DA637B68202283F83920D5
:104670007B68202283F83A20002318460837BD467D
:1046800080BD80B588B002AFF860B9603B6013466A
:10469000FB8000237B61FB6893F83930DBB2202B71
:1046A00040F08380BB68002B02D0FB88002B01D137
:1046B00001237BE0FB6893F83830012B01D1022302
:1046C00074E0FB68012283F83820FB680022DA637B
:1046D000FB68212283F83920FCF794FC7861FB68A1
:1046E000FA889A84FB68FA88DA8442E0FB68DB8CFB
:1046F0009BB2013B9AB2FB68DA84FB689B68B3F516
:10470000805F22D13B6800937B6900228021F8689A
:1047100000F050F80346002B01D0032346E0BB68AD
:104720003B613B691B881A46FB681B68C2F30802A1
:104730005A60FB681B69002B03D1BB680233BB6066
:1047400017E0BB680133BB6013E03B6800937B69F3
:1047500000228021F86800F02DF80346002B01D0DC
:10476000032323E0BB685A1CBA601A78FB681B68F5
:104770005A60FB68DB8C9BB2002BB7D13B6800937F
:104780007B6900224021F86800F014F80346002BF2
:1047900001D003230AE0FB68202283F83920FB685C
:1047A000002283F83820002300E00223184618373F
:1047B000BD4680BD80B584B000AFF860B9603B6095
:1047C0001346FB712CE0BB69B3F1FF3F28D0BB69F6
:1047D000002B07D0FCF716FC02463B68D31ABA69D7
:1047E0009A421DD2FB681B68DA68FB681B6822F4DA
:1047F000D072DA60FB681B685A69FB681B6822F09C
:1048000001025A61FB68202283F83920FB682022CC
:1048100083F83A20FB68002283F8382003230FE056
:10482000FB681B681A68BB681340BA689A420CBFE1
:1048300001230023DBB21A46FB799A42C3D000233E
:1048400018461037BD4680BDB0B584B000AF786063
:104850007B681B681B6923F440517B68DA687B68BE
:104860001B680A431A617B689A687B681B691A4354
:104870007B685B691A437B68DB691343FB607B6879
:104880001B68DB6823F4164323F00C037A68126874
:10489000F9680B43D3607B681B685B6923F4407144
:1048A0007B689A697B681B680A435A617B68DB698D
:1048B000B3F5004F40F0E4807B681B68AB4A93423D
:1048C00004D07B681B68AA4A93426CD1FEF72AF990
:1048D000024613469B0013449A001A447B685B68A7
:1048E0005B00B2FBF3F3A34AA2FB03235B091C01A9
:1048F000FEF718F9024613469B0013449A001A4427
:104900007B685B685B00B2FBF3F5FEF70BF90246D0
:1049100013469B0013449A001A447B685B685B0053
:10492000B2FBF3F3934AA2FB03235B09642202FB6D
:1049300003F3EB1ADB0032338E4AA2FB03235B093D
:104940005B0003F4F8731C44FEF7ECF802461346D0
:104950009B0013449A001A447B685B685B00B2FBBF
:10496000F3F5FEF7DFF8024613469B0013449A0066
:104970001A447B685B685B00B2FBF3F37D4AA2FBE1
:1049800003235B09642202FB03F3EB1ADB003233DF
:10499000784AA2FB03235B0903F007027B681B68CC
:1049A00022449A6054E1FEF7A9F8024613469B00A0
:1049B00013449A001A447B685B685B00B2FBF3F314
:1049C0006C4AA2FB03235B091C01FEF797F8024621
:1049D00013469B0013449A001A447B685B685B0093
:1049E000B2FBF3F5FEF78AF8024613469B00134428
:1049F0009A001A447B685B685B00B2FBF3F35D4A84
:104A0000A2FB03235B09642202FB03F3EB1ADB0026
:104A10003233584AA2FB03235B095B0003F4F873AB
:104A20001C44FEF76BF8024613469B0013449A00A1
:104A30001A447B685B685B00B2FBF3F5FEF75EF837
:104A4000024613469B0013449A001A447B685B6835
:104A50005B00B2FBF3F3474AA2FB03235B0964222A
:104A600002FB03F3EB1ADB003233424AA2FB0323BF
:104A70005B0903F007027B681B6822449A60E7E049
:104A80007B681B68394A934204D07B681B68384AAC
:104A9000934271D1FEF746F8024613469B00134439
:104AA0009A001A447B685B689B00B2FBF3F3314ABF
:104AB000A2FB03235B091C01FEF734F802461346F0
:104AC0009B0013449A001A447B685B689B00B2FB0E
:104AD000F3F5FEF727F8024613469B0013449A00AD
:104AE0001A447B685B689B00B2FBF3F3214AA2FB8C
:104AF00003235B09642202FB03F3EB1A1B0132332D
:104B00001C4AA2FB03235B0903F0F0031C44FEF7DD
:104B100009F8024613469B0013449A001A447B6826
:104B20005B689B00B2FBF3F5FDF7FCFF0246134602
:104B30009B0013449A001A447B685B689B00B2FB9D
:104B4000F3F30C4AA2FB03235B09642202FB03F389
:104B5000EB1A1B013233074AA2FB03235B0903F064
:104B60000F027B681B6822449A6071E000100140CC
:104B7000001401401F85EB51FDF7C0FF02461346AC
:104B80009B0013449A001A447B685B689B00B2FB4D
:104B9000F3F3314AA2FB03235B091C01FDF7AEFFCF
:104BA000024613469B0013449A001A447B685B68D4
:104BB0009B00B2FBF3F5FDF7A1FF024613469B00F5
:104BC00013449A001A447B685B689B00B2FBF3F3C2
:104BD000214AA2FB03235B09642202FB03F3EB1AC5
:104BE0001B0132331C4AA2FB03235B0903F0F003D1
:104BF0001C44FDF783FF024613469B0013449A00B2
:104C00001A447B685B689B00B2FBF3F5FDF776FF07
:104C1000024613469B0013449A001A447B685B6863
:104C20009B00B2FBF3F30C4AA2FB03235B09642253
:104C300002FB03F3EB1A1B013233074AA2FB0323E7
:104C40005B0903F00F027B681B6822449A60FFE750
:104C500000BF1037BD46B0BD1F85EB5180B400AF1B
:104C6000054B00221A80054B00221A8000BFBD466A
:104C70005DF8047B704700BF680F0020640F0020C0
:104C800080B500AF0FE00122012101200BF08AFB6B
:104C9000C820FCF7C3F90022002100200BF082FBA2
:104CA000C820FCF7BBF9094B1B68C82BEBD9084A95
:104CB000138843F0800313804FF4FA60FCF7AEF9D9
:104CC000044B4FF000021A6000BF80BD540D00205D
:104CD000640F00205C0B002080B400AF4FF0000395
:104CE0000F4A13600F4A13600F4B1B88C3F3400336
:104CF000DBB2002B05D14FF000030C4A13600C4AC5
:104D000013600C4A138843F002031380094A138886
:104D100043F00403138000BFBD465DF8047B704779
:104D2000EC0A0020C4150020640F0020A001002020
:104D3000FC0B0020680F002080B400AF4FF0000390
:104D40000C4A13600C4A13604FF000030B4A1360C7
:104D50000B4A13600B4A13886FF341031380094A0F
:104D600013886FF38203138000BFBD465DF8047B98
:104D7000704700BFEC0A0020C41500208007002007
:104D8000A80B0020680F002080B400AF074A1388EA
:104D900043F008031380054A138843F0100313807F
:104DA00000BFBD465DF8047B704700BF680F002060
:104DB00080B400AF074A13886FF3C3031380054A1A
:104DC00013886FF30413138000BFBD465DF8047BA6
:104DD000704700BF680F002080B582B000AF034667
:104DE0000A46FB711346BB71FB79002B3ED1BB79A0
:104DF000002B0FD1012220213F48FDF783FA00222A
:104E000010213D48FDF77EFA012201213B48FDF7C4
:104E100079FA6CE0BB79012B0FD1002220213648B2
:104E2000FDF770FA012210213348FDF76BFA0122D9
:104E300001213248FDF766FA59E0BB79022B0FD108
:104E4000012220212C48FDF75DFA012210212A4879
:104E5000FDF758FA012201212848FDF753FA46E0F0
:104E6000002201212548FDF74DFA40E0BB79002BD7
:104E700010D1012202212148FDF744FA00224FF40B
:104E800080611E48FDF73EFA012201211B48FDF713
:104E900039FA2CE0BB79012B10D1002202211748EE
:104EA000FDF730FA01224FF480611448FDF72AFA29
:104EB000012201211148FDF725FA18E0BB79022BE8
:104EC00010D1012202210D48FDF71CFA01224FF4F6
:104ED00080610A48FDF716FA012201210748FDF713
:104EE00011FA04E0002201210448FDF70BFA00BF8B
:104EF0000837BD4680BD00BF0008024000040240E4
:104F000080B582B000AF06200BF086FA00237B60EC
:104F10007B68DBB203F00103D8B27B68DBB203F03D
:104F20000203D9B27B68DBB203F00403DBB21A469A
:104F30000BF038FA214BD3ED007AB3EE047AF4EE9D
:104F4000C77AF1EE10FA0FDB7B6801337B601B4BF5
:104F50004FF000021A607B68072B01DD00237B60A5
:104F6000796817480BF0ECFF144BD3ED007ABBEED9
:104F7000047AF4EEC77AF1EE10FA0FD87B68013BA1
:104F80007B600E4B4FF000021A607B68002B01DA49
:104F900007237B6079680A480BF0D2FF094B1B6836
:104FA000C72BB5D97B68DAB2074B1A7004200BF017
:104FB00033FA00BF00BF0837BD4680BDEC0A0020B1
:104FC0007C210108540D00205604002090B583B0C8
:104FD00000AF0446084611461A462346FB800346A6
:104FE000BB800B467B8013463B80BB8807EE903A24
:104FF000F8EE677A274BC3ED007A274BC3ED007AB2
:105000007B8807EE903AF8EE677A244BC3ED007A7E
:10501000234BC3ED007AFB8807EE903AF8EE677AEF
:10502000204BC3ED007A204BC3ED007A1F4B1B8849
:10503000C3F34003DBB2002B0AD0BB8807EE903AE3
:10504000F8EE677A1A4BC3ED007A1A4BC3ED007A7B
:10505000FFF742FE00BF3B8807EE903AB8EEE77AD2
:10506000154BD3ED007AB4EEE77AF1EE10FAF2DCEC
:105070003B8807EE903AB8EEE77A104BD3ED007A12
:10508000B4EEE77AF1EE10FAE5DC00BF0C37BD466E
:1050900090BD00BF6C0F0020540B0020A401002025
:1050A0007C070020E40A0020580D0020640F002037
:1050B000A0010020FC0B0020C4150020EC0A0020F9
:1050C00090B585B000AF0446084611461A462346FF
:1050D000FB800346BB800B467B8013463B805A4BCC
:1050E00093ED007A594BD3ED007A37EE277AF0EE44
:1050F000006AC7EE267AC7ED037ABB8807EE903ABE
:10510000F8EE677A524BC3ED007A524BC3ED007A4A
:105110007B8807EE903AF8EE677A4F4BC3ED007A42
:105120004E4BC3ED007AB7F9063007EE903AF8EE31
:10513000E77A4B4BC3ED007A4A4BC3ED007A3B88CC
:1051400007EE903AB8EEE77A424BD3ED006A414B56
:10515000D3ED007A66EEA76A97ED036AD7ED037A7E
:1051600066EE277A36EEE76A3E4BD3ED007A77EEAD
:10517000A76AC6EE267A77EE677AFDEEE77A17EE33
:10518000903A7B814FF00003354A1360354A136033
:105190004FF00003344A1360344A1360B7F90A3001
:1051A000002B1CDD00BFB7F90A3007EE903AB8EECD
:1051B000E77A2E4BD3ED007AB4EEE77AF1EE10FAEF
:1051C000F1DCB7F90A3007EE903AB8EEE77A264BF1
:1051D000D3ED007AB4EEE77AF1EE10FAE3DCB7F93A
:1051E000063007EE903AF8EEE77A1D4BC3ED007AF1
:1051F0001C4BC3ED007A00BF3B8807EE903AB8EE37
:10520000E77A1A4BD3ED007AB4EEE77AF1EE10FAB2
:10521000F2DC3B8807EE903AB8EEE77A124BD3ED1A
:10522000007AB4EEE77AF1EE10FAE5DC104B1B8859
:10523000C3F34003DBB2002B01D1FFF77DFD00BFBC
:105240001437BD4690BD00BFF00A0020BC0200200C
:105250006C0F0020540B0020A40100207C070020CC
:10526000E40A0020580D0020EC0A0020C41500209C
:10527000640F002080B483B000AF0346FB804FF082
:105280000003284A1360284A13604FF00003274A9E
:105290001360274A136024E0264B1B88C3F3C02306
:1052A000DBB2002B1DD0244B1B68772B03D9234B7B
:1052B0001B686D2B15D800BF1D4BD3ED007A9FEDF9
:1052C000207AF4EEC77AF1EE10FAF5D4174BD3ED4D
:1052D000007A9FED1B7AF4EEC77AF1EE10FAEBD468
:1052E00019E0FB8807EE903AB8EEE77A104BD3ED61
:1052F000007AB4EEE77AF1EE10FACDDCFB8807EE27
:10530000903AB8EEE77A094BD3ED007AB4EEE77A3B
:10531000F1EE10FAC0DC00BF0C37BD465DF8047B2F
:10532000704700BFE40A0020580D0020EC0A00205E
:10533000C4150020680F0020FC0A0020600F002028
:1053400000008C4280B582B000AF0346FB80194B51
:10535000194A1360194A1360164B194A1360194A07
:1053600013604FF00003184A1360184A1360FFF7E8
:10537000B3FC00BFFB8807EE903AB8EEE77A144B17
:10538000D3ED007AB4EEE77AF1EE10FAF2DCFB88A6
:1053900007EE903AB8EEE77A0E4BD3ED007AB4EE12
:1053A000E77AF1EE10FAE5DCFFF7C6FC00BF08373C
:1053B000BD4680BD000016436C0F0020540B00203A
:1053C000A40100207C070020E40A0020580D0020E2
:1053D000C4150020EC0A002080B582B000AF03465F
:1053E000FB801A4B1A4A13601A4A1360174B1A4A69
:1053F00013601A4A13604FF00003194A1360194AE8
:105400001360FFF769FC00BFFB885B4207EE903A30
:10541000B8EEE77A144BD3ED007AB4EEE77AF1EE0A
:1054200010FAF1D4FB885B4207EE903AB8EEE77AC7
:105430000E4BD3ED007AB4EEE77AF1EE10FAE3D436
:10544000FFF77AFC00BF0837BD4680BD00007AC375
:105450006C0F0020540B0020A40100207C070020CA
:10546000E40A0020580D0020C4150020EC0A00209A
:1054700090B583B000AF0446084611461A4623464D
:10548000FB800346BB800B46FB7013463B802D4AD6
:1054900013886FF3082313802A4A138843F0040308
:1054A0001380B7F9063007EE903AF8EEE77A264B0C
:1054B000C3ED007A254BC3ED007AB7F9043007EE4F
:1054C000903AF8EEE77A224BC3ED007A214BC3ED18
:1054D000007AFFF759FC4FF000031F4A13601F4A80
:1054E00013600DE03A881E4B1B689A4208D23A8B33
:1054F0001C4B1B689A4203D201200AF08DFF19E071
:10550000FB7807EE903AB8EEE77A144BD3ED007AC9
:10551000B4EEE77AF1EE10FA0CDDFB7807EE903A84
:10552000B8EEE77A0C4BD3ED007AB4EEE77AF1EE01
:1055300010FAD7DCFFF700FCFFF73AFC00BF0C378E
:10554000BD4690BD680F0020E40A0020580D0020E1
:10555000A40100207C070020EC0A0020C4150020D4
:10556000540D0020000C002090B484B000AF04461D
:10557000084611461A462346FB800346BB800B466D
:105580007B8013463B80824A138843F480731380E8
:10559000B7F9063007EE903AF8EEE77A7D4BC3EDA7
:1055A000007A7D4B4FF000021A60B7F9003007EE29
:1055B000903AF8EEE77A794BC3ED007AB7F9043008
:1055C000002B1FDAB7F9043007EE903AF8EEE77ACD
:1055D000734BC3ED007A724B93ED007A704BD3EDB1
:1055E000007A67EE276A6B4BD3ED007A86EEA77AD6
:1055F000F0EE006AC7EE267AFDEEE77A17EE903AF3
:10560000FB811EE0B7F9043007EE903AF8EEE77A36
:10561000644BC3ED007A634B93ED007A614BD3ED9D
:10562000007A67EE276A5B4BD3ED007A86EEA77AA5
:10563000F0EE006AC7EE267AFDEEE77A17EE903AB2
:10564000FB81534A138843F002031380B7F90430F7
:10565000002B14DA00BFB7F90E3007EE903AB8EE1F
:10566000E77A514BD3ED007A37EE277A4F4BD3EDE3
:10567000007AB4EEE77AF1EE10FAECD413E000BF52
:10568000B7F90E3007EE903AB8EEE77A464BD3ED15
:10569000007A37EE277A454BD3ED007AB4EEE77AFD
:1056A000F1EE10FAECDC3B4B4FF000021A60B7F958
:1056B0000430002B18DA00BFB7F90220B7F90E301A
:1056C000D31A043B07EE903AB8EEE77A364BD3EDA7
:1056D000007A37EE277A354BD3ED007AB4EEE77ACD
:1056E000F1EE10FAE8D417E000BFB7F90220B7F9DD
:1056F0000E30D31A043307EE903AB8EEE77A2A4B0D
:10570000D3ED007A37EE277A284BD3ED007AB4EE4A
:10571000E77AF1EE10FAE8DCB7F906305B4207EE03
:10572000903AF8EEE77A1B4BC3ED007AB7F90430F4
:10573000002B14DA00BFB7F9023007EE903AB8EE4A
:10574000E77A194BD3ED007A37EE277A174BD3ED72
:10575000007AB4EEE77AF1EE10FAECD413E000BF71
:10576000B7F9023007EE903AB8EEE77A0E4BD3ED78
:10577000007A37EE277A0D4BD3ED007AB4EEE77A54
:10578000F1EE10FAECDC00BF1037BD4690BC70475C
:10579000680F0020580B0020A8010020F40A002008
:1057A000B8020020E80A0020F80B00205C0B002063
:1057B00080B582B000AF0346FB800B46BB8013462A
:1057C000FB70254A13886FF308231380224A13883D
:1057D00043F004031380B7F9063007EE903AF8EE71
:1057E000E77A1E4BC3ED007A1D4BC3ED007AB7F983
:1057F000043007EE903AF8EEE77A1A4BC3ED007AE0
:10580000194BC3ED007AFFF7BFFA4FF00003174AB8
:105810001360174A136000BFFB7807EE903AB8EEAA
:10582000E77A134BD3ED007AB4EEE77AF1EE10FA93
:1058300000DC0CE0FB7807EE903AB8EEE77A0B4B11
:10584000D3ED007AB4EEE77AF1EE10FAE4DC00BFB3
:105850000837BD4680BD00BF680F0020E40A002065
:10586000580D0020A40100207C070020EC0A002035
:10587000C415002080B500AF6420FFF7ADFD054BD7
:105880001B68054A1360054B00221A7000F028F8C7
:1058900000BF80BDF80B00205C0B0020C815002065
:1058A00080B500AF01200AF0B7FD6420FBF7B6FB1E
:1058B0000A4A138843F002031380084A138843F00E
:1058C0008003138000BF054B1B88C3F3C013DBB2FA
:1058D000002BF8D1FFF730FA00BF80BD680F002021
:1058E00080B500AFFFF750FA644B1B78DBB2012B99
:1058F0002AD1634B1B78DBB2002B08D17D234FF4F8
:10590000C87214214FF47A60FFF760FBA8E05C4B8B
:105910001B78DBB2012B08D15B234FF4C872142132
:105920004FF47A60FFF752FB9AE0554B1B78DBB2DD
:10593000022B40F0958023234FF4C87214214FF4BA
:105940007A60FFF743FB8BE04C4B1B78DBB2022BFA
:1059500029D14B4B1B78DBB2002B08D17D234FF4B0
:105960001672142141F27070FFF730FB78E0444B5F
:105970001B78DBB2012B08D15B234FF41672142184
:1059800041F27070FFF722FB6AE03D4B1B78DBB2FF
:10599000022B65D123234FF41672142141F270704B
:1059A000FFF714FB5CE0354B1B78DBB2032B29D1EE
:1059B000334B1B78DBB2002B08D17D234FF44872A8
:1059C00014214FF4FA50FFF701FB49E02C4B1B78F0
:1059D000DBB2012B08D15B234FF4487214214FF442
:1059E000FA50FFF7F3FA3BE0254B1B78DBB2022BB2
:1059F00036D123234FF44872142142F21070FFF77E
:105A0000E5FA2DE01D4B1B78DBB2042B28D11C4B93
:105A10001B78DBB2002B08D17D234FF47A7214215E
:105A200042F21070FFF7D2FA1AE0154B1B78DBB286
:105A3000012B08D15B234FF47A72142142F21070CB
:105A4000FFF7C4FA0CE00E4B1B78DBB2022B07D138
:105A500023234FF47A72142143F69820FFF7B6FA05
:105A6000074B01221A70074B1B88C3F34013DBB2AC
:105A7000002B01D10AF05CFC00BF80BD5604002061
:105A8000C8150020680F002080B500AFFFF77CF933
:105A9000204B1B78DBB2012B08D15B234FF4C8727B
:105AA00014214FF47A60FFF791FA28E0194B1B7824
:105AB000DBB2022B08D15B234FF41672142141F2A2
:105AC0007070FFF783FA1AE0124B1B78DBB2032BDE
:105AD00008D15B234FF4487214214FF4FA50FFF7BA
