:020000040800F2
:1000000000000220A15E0008915C00089F5C0008CF
:10001000A55C0008AB5C0008B15C000800000000B3
:10002000000000000000000000000000B75C0008B5
:10003000C55C000800000000D35C0008E15C00081B
:10004000F15E0008F15E0008F15E0008F15E000854
:10005000F15E0008F15E0008F15E0008F15E000844
:10006000F15E0008F15E0008F15E0008F15E000834
:10007000F15E0008F15E0008F15E0008F15E000824
:10008000F15E0008F15E0008F15E0008F15E000814
:10009000F15E0008F15E0008F15E0008F15E000804
:1000A000F15E0008F15E0008F15E0008F15E0008F4
:1000B000F15E0008F15E0008F15E0008F15E0008E4
:1000C000F15E0008F15E0008F15E0008F15E0008D4
:1000D000F15E0008F15E0008F15E0008F15E0008C4
:1000E000F15E0008F15E0008F15E0008F15E0008B4
:1000F000F15E0008F15E0008F15E0008F15E0008A4
:10010000F15E0008F15E0008F15E0008F15E000893
:10011000F15E0008F15E0008ED5C0008F15E000889
:10012000F15E0008F15E0008F15E0008F15E000873
:10013000F15E00080000000000000000F15E000811
:10014000F15E0008F15E0008F15E0008F15E000853
:10015000F15E0008F15E0008F15E0008F15E000843
:10016000F15E0008F15E0008F15E0008F15E000833
:10017000F15E0008F15E00080000000000000000D1
:08018000F15E0008F15E0008C9
:1001900010B5054C237833B9044B13B10448AFF3C1
:1001A00000800123237010BD20010020000000000A
:1001B000646F000808B5034B1BB103490348AFF354
:1001C000008008BD0000000024010020646F0008CA
:1001D00001F0FF01102A2BDB10F0070F08D010F8F8
:1001E000013B013A8B422DD010F0070F42B3F6D1FC
:1001F000F0B441EA012141EA014122F007047FF015
:1002000000070023F0E80256083C85EA010586EA6B
:10021000010685FA47F5A3FA87F586FA47F6A5FAA7
:1002200087F68EB9EED1F0BC01F0FF0102F00702B3
:1002300032B110F8013B013A83EA010313B1F8D15E
:100240000020704701387047002D06BF354603383F
:10025000073815F0010F07D1013015F4807F02BF78
:10026000013015F4C03F0130F0BC0138704700BFC9
:1002700081F0004102E000BF83F0004330B54FEA57
:1002800041044FEA430594EA050F08BF90EA020FC4
:100290001FBF54EA000C55EA020C7FEA645C7FEA57
:1002A000655C00F0E2804FEA5454D4EB5555B8BF7A
:1002B0006D420CDD2C4480EA020281EA030382EAEB
:1002C000000083EA010180EA020281EA0303362D7D
:1002D00088BF30BD11F0004F4FEA01314FF4801C50
:1002E0004CEA113102D0404261EB410113F0004F62
:1002F0004FEA03334CEA133302D0524263EB430319
:1003000094EA050F00F0A780A4F10104D5F1200EB6
:100310000DDB02FA0EFC22FA05F2801841F1000111
:1003200003FA0EF2801843FA05F359410EE0A5F1E5
:1003300020050EF1200E012A03FA0EFC28BF4CF016
:10034000020C43FA05F3C01851EBE37101F00045CC
:1003500007D54FF0000EDCF1000C7EEB00006EEBD9
:100360000101B1F5801F1BD3B1F5001F0CD3490863
:100370005FEA30004FEA3C0C04F101044FEA4452BA
:1003800012F5800F80F09A80BCF1004F08BF5FEA41
:10039000500C50F1000041EB045141EA050130BD21
:1003A0005FEA4C0C404141EB010111F4801FA4F1C4
:1003B0000104E9D191F0000F04BF01460020B1FA19
:1003C00081F308BF2033A3F10B03B3F120020CDA51
:1003D0000C3208DD02F1140CC2F10C0201FA0CF02F
:1003E00021FA02F10CE002F11402D8BFC2F1200C94
:1003F00001FA02F120FA0CFCDCBF41EA0C0190404A
:10040000E41AA2BF01EB0451294330BD6FEA040492
:100410001F3C1CDA0C340EDC04F11404C4F120027D
:1004200020FA04F001FA02F340EA030021FA04F38F
:1004300045EA030130BDC4F10C04C4F1200220FAE6
:1004400002F001FA04F340EA0300294630BD21FA24
:1004500004F0294630BD94F0000F83F4801306BFEA
:1004600081F480110134013D4EE77FEA645C18BFDE
:100470007FEA655C29D094EA050F08BF90EA020F75
:1004800005D054EA000C04BF1946104630BD91EA6D
:10049000030F1EBF0021002030BD5FEA545C05D170
:1004A0004000494128BF41F0004130BD14F58004AF
:1004B0003CBF01F5801130BD01F0004545F0FE4123
:1004C00041F470014FF0000030BD7FEA645C1ABF58
:1004D000194610467FEA655C1CBF0B46024650EA8F
:1004E000013406BF52EA033591EA030F41F40021BB
:1004F00030BD00BF90F0000F04BF0021704730B541
:100500004FF4806404F132044FF000054FF0000115
:1005100050E700BF90F0000F04BF0021704730B5D6
:100520004FF4806404F1320410F0004548BF4042AB
:100530004FF000013EE700BF42004FEAE2014FEA00
:1005400031014FEA02701FBF12F07F4393F07F4FDB
:1005500081F06051704732F07F4208BF704793F0DE
:100560007F4F04BF41F40021704730B54FF46074F1
:1005700001F0004521F000411CE700BF50EA0102F4
:1005800008BF704730B54FF000050AE050EA01029D
:1005900008BF704730B511F0004502D5404261EB0D
:1005A00041014FF4806404F132045FEA915C3FF44E
:1005B000D8AE4FF003025FEADC0C18BF03325FEAEB
:1005C000DC0C18BF033202EBDC02C2F1200300FA9C
:1005D00003FC20FA02F001FA03FE40EA0E0021FAC1
:1005E00002F11444BDE600BF70B54FF0FF0C4CF4AF
:1005F000E06C1CEA11541DBF1CEA135594EA0C0F61
:1006000095EA0C0F00F0DEF82C4481EA030621EA9B
:100610004C5123EA4C5350EA013518BF52EA0335D6
:1006200041F4801143F4801338D0A0FB02CE4FF088
:100630000005E1FB02E506F00042E0FB03E54FF0B8
:100640000006E1FB03569CF0000F18BF4EF0010EB0
:10065000A4F1FF04B6F5007F64F5407404D25FEAAC
:100660004E0E6D4146EB060642EAC62141EA55515F
:100670004FEAC52040EA5E504FEACE2EB4F1FD0CA1
:1006800088BFBCF5E06F1ED8BEF1004F08BF5FEA1F
:10069000500E50F1000041EB045170BD06F00046D1
:1006A00046EA010140EA020081EA0301B4EB5C047E
:1006B000C2BFD4EB0C0541EA045170BD41F4801176
:1006C0004FF0000E013C00F3AB8014F1360FDEBF9B
:1006D000002001F0004170BDC4F10004203C35DA77
:1006E0000C341BDC04F11404C4F1200500FA05F3FA
:1006F00020FA04F001FA05F240EA020001F000429B
:1007000021F0004110EBD37021FA04F642EB060110
:100710005EEA430E08BF20EAD37070BDC4F10C043A
:10072000C4F1200500FA04F320FA05F001FA04F2FE
:1007300040EA020001F0004110EBD37041F10001EA
:100740005EEA430E08BF20EAD37070BDC4F12005F5
:1007500000FA05F24EEA020E20FA04F301FA05F25D
:1007600043EA020321FA04F001F0004121FA04F205
:1007700020EA020000EBD3705EEA430E08BF20EAD5
:10078000D37070BD94F0000F0FD101F0004640000F
:1007900041EB010111F4801F08BF013CF7D041EA91
:1007A000060195F0000F18BF704703F00046520095
:1007B00043EB030313F4801F08BF013DF7D043EA66
:1007C0000603704794EA0C0F0CEA135518BF95EA1C
:1007D0000C0F0CD050EA410618BF52EA4306D1D1A3
:1007E00081EA030101F000414FF0000070BD50EAC2
:1007F000410606BF1046194652EA430619D094EA4C
:100800000C0F02D150EA013613D195EA0C0F05D135
:1008100052EA03361CBF104619460AD181EA030189
:1008200001F0004141F0FE4141F470014FF0000041
:1008300070BD41F0FE4141F4780170BD70B54FF0DC
:10084000FF0C4CF4E06C1CEA11541DBF1CEA13555C
:1008500094EA0C0F95EA0C0F00F0A7F8A4EB05043E
:1008600081EA030E52EA03354FEA013100F0888035
:100870004FEA03334FF0805545EA131343EA1263FE
:100880004FEA022245EA111545EA10654FEA0026B3
:100890000EF000419D4208BF964244F1FD0404F56C
:1008A000407402D25B084FEA3202B61A65EB0305C8
:1008B0005B084FEA32024FF480104FF4002CB6EB85
:1008C000020E75EB030E22BFB61A754640EA0C0005
:1008D0005B084FEA3202B6EB020E75EB030E22BF45
:1008E000B61A754640EA5C005B084FEA3202B6EB86
:1008F000020E75EB030E22BFB61A754640EA9C0045
:100900005B084FEA3202B6EB020E75EB030E22BF14
:10091000B61A754640EADC0055EA060E18D04FEAD2
:10092000051545EA16754FEA06164FEAC30343EA72
:1009300052734FEAC2025FEA1C1CC0D111F4801F3F
:100940000BD141EA00014FF000004FF0004CB6E738
:1009500011F4801F04BF01430020B4F1FD0C88BFD7
:10096000BCF5E06F3FF6AFAEB5EB030C04BFB6EBE2
:10097000020C5FEA500C50F1000041EB045170BDD5
:100980000EF0004E4EEA113114EB5C04C2BFD4EB02
:100990000C0541EA045170BD41F480114FF0000E86
:1009A000013C90E645EA060E8DE60CEA135594EA02
:1009B0000C0F08BF95EA0C0F3FF43BAF94EA0C0F05
:1009C0000AD150EA01347FF434AF95EA0C0F7FF47A
:1009D00025AF104619462CE795EA0C0F06D152EACE
:1009E00003353FF4FDAE1046194622E750EA4106B2
:1009F00018BF52EA43067FF4C5AE50EA41047FF4C3
:100A00000DAF52EA43057FF4EBAE12E74FEA410225
:100A1000B2F1E04324BFB3F5001CDCF1FE5C0DD95C
:100A200001F0004C4FEAC0024CEA5070B2F1004FA6
:100A300040EB830008BF20F00100704711F0804FA9
:100A400021D113F13872BCBF01F00040704741F46E
:100A500080114FEA5252C2F11802C2F1200C10FA72
:100A60000CF320FA02F018BF40F001004FEAC12356
:100A70004FEAD32303FA0CFC40EA0C0023FA02F3FA
:100A80004FEA4303CCE77FEA625307D150EA0133D0
:100A90001EBF4FF0FE4040F44000704701F00040A0
:100AA00040F0FE4040F40000704700BF53B94AB91F
:100AB000002908BF00281CBF4FF0FF314FF0FF3066
:100AC00000F072B9ADF1080C6DE904CE00F006F843
:100AD000DDF804E0DDE9022304B070472DE9F047BA
:100AE000089E04468846002B4BD18A42154667D99A
:100AF000B2FA82F24AB1C2F1200701FA02F320FAF7
:100B000007F7954047EA030894404FEA154E230C37
:100B1000B8FBFEF71FFA85FC0EFB178843EA084373
:100B200007FB0CF1994209D9EB1807F1FF3080F06F
:100B30001B81994240F21881023F2B445B1AA4B2F8
:100B4000B3FBFEF00EFB103344EA034400FB0CFC45
:100B5000A44509D92C1900F1FF3380F00781A44581
:100B600040F2048102382C4440EA0740A4EB0C0414
:100B700000271EB1D4400023C6E900433946BDE832
:100B8000F0878B4209D9002E00F0EB800027C6E9E0
:100B9000000138463946BDE8F087B3FA83F7002FE5
:100BA00047D18B4202D3824200F2FA80841A61EB71
:100BB000030301209846002EE0D0C6E90048DDE797
:100BC00002B9FFDEB2FA82F2002A40F08F80491BA0
:100BD0004FEA154E1FFA85F80127B1FBFEFC230CE6
:100BE0000EFB1C1143EA014308FB0CF1994207D9A3
:100BF000EB180CF1FF3002D2994200F2CD8084460E
:100C0000591AA3B2B1FBFEF00EFB101443EA0444E0
:100C100008FB00F8A04507D92C1900F1FF3302D2D8
:100C2000A04500F2B6801846A4EB080440EA0C4048
:100C30009FE7C7F1200CBB4022FA0CFE4EEA030EE0
:100C400001FA07F420FA0CF521FA0CF34FEA1E48DA
:100C50002543B3FBF8F92C0C08FB19331FFA8EFA65
:100C600044EA034309FB0AF49C4202FA07F200FA41
:100C700007F10BD91EEB030309F1FF3080F08780E9
:100C80009C4240F28480A9F1020973441B1BADB25F
:100C9000B3FBF8F008FB103345EA034400FB0AFA03
:100CA000A24508D91EEB040400F1FF336BD2A24524
:100CB00069D90238744440EA0940A0FB0289A4EBD8
:100CC0000A044C45C2464B4654D351D0002E69D03D
:100CD000B1EB0A0564EB030404FA0CFCFD40FC4094
:100CE0004CEA0505C6E90054002747E7C2F1200396
:100CF00020FA03F7954001FA02F021FA03F34FEAD4
:100D0000154E3843010CB3FBFEF71FFA85F80EFBB6
:100D1000173341EA034107FB08F38B4204FA02F45C
:100D200007D9691807F1FF3C2FD28B422DD9023F1A
:100D30002944CB1A81B2B3FBFEF00EFB103341EA1B
:100D4000034100FB08F38B4207D9691800F1FF3C0F
:100D500017D28B4215D902382944C91A40EA0747ED
:100D60003BE73746304609E70746E7E61846FBE625
:100D70004145ABD2B8EB020A69EB0E0201381346CB
:100D8000A4E76046E9E7184695E76746D1E781465C
:100D90007CE702382C4447E7ACF1020C2B442FE7E8
:100DA000384608E73746E9E6704700BF80B500AF30
:100DB0000E4B1B680D4A43F4007313600B4B1B680A
:100DC0000A4A43F480631360084B1B68074A43F4E4
:100DD00080731360032000F007FD002000F008F886
:100DE00004F00CFD0023184680BD00BF003C02400B
:100DF00080B582B000AF7860124B1A68124B1B7836
:100E000019464FF47A73B3FBF1F3B2FBF3F31846D0
:100E100000F01FFD0346002B01D001230EE07B688C
:100E20000F2B0AD8002279684FF0FF3000F0E7FC62
:100E3000064A7B681360002300E001231846083748
:100E4000BD4680BDB8000020040000200000002046
:100E500080B400AF064B1B781A46064B1B68134440
:100E6000044A136000BFBD465DF8047B704700BFB5
:100E7000040000205001002080B400AF034B1B6829
:100E80001846BD465DF8047B704700BF5001002046
:100E900080B584B000AF7860FFF7EEFFB8607B6884
:100EA000FB60FB68B3F1FF3F05D0094B1B781A4686
:100EB000FB681344FB6000BFFFF7DEFF0246BB6820
:100EC000D31AFA689A42F7D800BF1037BD4680BDE2
:100ED0000400002080B584B000AF78600023FB736D
:100EE0007B68002B01D1012333E07B681B6C002B56
:100EF00009D1786804F0AAFC7B6800225A647B68F8
:100F0000002283F83C207B681B6C03F01003002B4D
:100F100018D17B681B6C23F4885323F0020343F041
:100F200002027B681A64786800F092FA7B680022FB
:100F30005A647B681B6C23F0030343F001027B6857
:100F40001A6401E00123FB737B68002283F83C20D4
:100F5000FB7B18461037BD4680BD000080B485B0CD
:100F600000AF78600023BB607B6893F83C30012BB6
:100F700001D10223A5E07B68012283F83C207B6835
:100F80001B689B6803F00103012B18D07B681B686A
:100F90009A687B681B6842F001029A604C4B1B68A0
:100FA0004C4AA2FB03239A0C13465B001344BB601C
:100FB00002E0BB68013BBB60BB68002BF9D17B68DA
:100FC0001B689B6803F00103012B79D17B681B6CC4
:100FD00023F4E06323F0010343F480727B681A6416
:100FE0007B681B685B6803F48063002B07D07B6819
:100FF0001B6C23F4405343F480527B681A647B6873
:101000001B6C03F48053B3F5805F06D17B685B6C87
:1010100023F006027B685A6402E07B6800225A646F
:101020007B68002283F83C202B4BFB607B681B68AD
:101030006FF022021A60FB685B6803F01F03002B4D
:101040002AD17B681B68254A934215D07B681B68B0
:10105000234A934205D1204B5B6803F01F03002B0A
:101060000AD07B681B681F4A934229D11A4B5B68E0
:1010700003F01F030F2B23D87B681B689B6803F0CA
:101080004053002B1CD17B681B689A687B681B68E7
:1010900042F080429A6013E07B681B680F4A9342DB
:1010A0000ED17B681B689B6803F04053002B07D16F
:1010B0007B681B689A687B681B6842F080429A6074
:1010C000002318461437BD465DF8047B704700BF07
:1010D000B800002083DE1B430023014000200140B4
:1010E000002101400022014080B584B000AF78604B
:1010F00039600023FB607B681B689B6803F4806396
:10110000B3F5806F13D17B681B689B6803F4807311
:10111000B3F5807F0BD17B681B6C43F020027B68AA
:101120001A647B68002283F83C2001235CE0FFF70F
:10113000A3FEF8601AE03B68B3F1FF3F16D03B68AE
:10114000002B07D0FFF798FE0246FB68D31A3A68D7
:101150009A420BD27B681B6C43F004027B681A64D2
:101160007B68002283F83C2003233DE07B681B68FA
:101170001B6803F00203022BDDD17B681B686FF054
:1011800012021A607B681B6C43F400727B681A645D
:101190007B681B689B6803F04053002B23D17B685E
:1011A0001B7E002B1FD17B681B68DB6A03F4700376
:1011B000002B06D07B681B689B6803F48063002BC0
:1011C00011D17B681B6C23F480727B681A647B6886
:1011D0001B6C03F48053002B05D17B681B6C43F020
:1011E00001027B681A64002318461037BD4680BD93
:1011F00080B483B000AF78607B681B68DB6C1846F6
:101200000C37BD465DF8047B7047000080B485B0A4
:1012100000AF786039600023BB607B6893F83C3096
:10122000012B01D1022305E17B68012283F83C20D8
:101230003B681B68092B25D97B681B68D9683B680C
:101240001B689BB21A4613465B0013441E3B0722E1
:1012500002FA03F3DA437B681B680A40DA607B68B2
:101260001B68D9683B689A683B681B689BB2184644
:1012700003465B0003441E3B9A407B681B680A439D
:10128000DA6022E07B681B6819693B681B689BB2C7
:101290001A4613465B001344072202FA03F3DA43AB
:1012A0007B681B680A401A617B681B6819693B6888
:1012B0009A683B681B689BB2184603465B00034470
:1012C0009A407B681B680A431A613B685B68062B7F
:1012D00024D87B681B68596B3B685A6813469B008F
:1012E0001344053B1F2202FA03F3DA437B681B68B1
:1012F0000A405A637B681B68596B3B681B689BB24A
:1013000018463B685A6813469B001344053B00FA95
:1013100003F27B681B680A435A634CE03B685B68D6
:101320000C2B24D87B681B68196B3B685A681346E2
:101330009B001344233B1F2202FA03F3DA437B682A
:101340001B680A401A637B681B68196B3B681B6843
:101350009BB218463B685A6813469B001344233BD4
:1013600000FA03F27B681B680A431A6323E07B6878
:101370001B68D96A3B685A6813469B001344413B7B
:101380001F2202FA03F3DA437B681B680A40DA6221
:101390007B681B68D96A3B681B689BB218463B6830
:1013A0005A6813469B001344413B00FA03F27B68E2
:1013B0001B680A43DA62224BFB607B681B68214A88
:1013C000934209D13B681B68122B05D1FB685B680F
:1013D00043F48002FB685A607B681B68194A934299
:1013E00023D13B681B68102B03D03B681B68112B73
:1013F0001BD1FB685B6843F40002FB685A603B68E2
:101400001B68102B11D1104B1B68104AA2FB032341
:101410009A0C13469B0013445B00BB6002E0BB6860
:10142000013BBB60BB68002BF9D17B68002283F8CD
:101430003C20002318461437BD465DF8047B7047F6
:101440000023014000200140B800002083DE1B4340
:1014500080B485B000AF7860794BFB60FB685B6857
:1014600023F44032FB685A60FB685A687B685B680B
:101470001A43FB685A607B681B685A687B681B6864
:1014800022F480725A607B681B6859687B681B690C
:101490001A027B681B680A435A607B681B685A689B
:1014A0007B681B6822F040725A607B681B68596831
:1014B0007B689A687B681B680A435A607B681B6874
:1014C0009A687B681B6822F400629A607B681B68DC
:1014D00099687B68DA687B681B680A439A607B6856
:1014E0009B6A584A934222D07B681B689A687B6843
:1014F0001B6822F070629A607B681B6899687B6841
:101500009A6A7B681B680A439A607B681B689A68C2
:101510007B681B6822F040529A607B681B68996860
:101520007B68DA6A7B681B680A439A600FE07B6815
:101530001B689A687B681B6822F070629A607B68FF
:101540001B689A687B681B6822F040529A607B682F
:101550001B689A687B681B6822F002029A607B68AD
:101560001B6899687B681B7E5A007B681B680A436E
:101570009A607B6893F82030002B1BD07B681B6837
:101580005A687B681B6842F400625A607B681B687B
:101590005A687B681B6822F460425A607B681B684B
:1015A00059687B685B6A013B5A037B681B680A4386
:1015B0005A6007E07B681B685A687B681B6822F4E6
:1015C00000625A607B681B68DA6A7B681B6822F4D9
:1015D0007002DA627B681B68D96A7B68DB69013B51
:1015E0001A057B681B680A43DA627B681B689A6885
:1015F0007B681B6822F400729A607B681B6899689C
:101600007B6893F830305A027B681B680A439A6003
:101610007B681B689A687B681B6822F480629A600A
:101620007B681B6899687B685B699A027B681B68AA
:101630000A439A6000BF1437BD465DF8047B7047CB
:10164000002301400100000F80B485B000AF786036
:101650007B6803F00703FB600C4BDB68BB60BA6878
:101660004FF6FF031340BB60FB681A02BB681343CD
:1016700043F0BF6343F40033BB60044ABB68D360EC
:1016800000BF1437BD465DF8047B704700ED00E0F5
:1016900080B400AF044BDB681B0A03F00703184655
:1016A000BD465DF8047B704700ED00E080B483B078
:1016B00000AF0346FB7197F90730002B0BDBFB797A
:1016C00003F01F02074997F907305B09012000FA70
:1016D00002F241F8232000BF0C37BD465DF8047BC1
:1016E000704700BF00E100E080B483B000AF034664
:1016F0003960FB7197F90730002B0ADB3B68DAB2DF
:101700000C4997F907301201D2B20B4483F8002339
:101710000AE03B68DAB20849FB7903F00F03043BA7
:101720001201D2B20B441A7600BF0C37BD465DF8E9
:10173000047B704700E100E000ED00E080B489B078
:1017400000AFF860B9607A60FB6803F00703FB61E3
:10175000FB69C3F10703042B28BF0423BB61FB69AA
:101760000433062B02D9FB69033B00E000237B61B5
:101770004FF0FF32BB6902FA03F3DA43BB681A4049
:101780007B699A404FF0FF317B6901FA03F3D9433B
:101790007B680B40134318462437BD465DF8047B35
:1017A0007047000080B582B000AF78607B68013B75
:1017B000B3F1807F01D301230FE00A4A7B68013B2C
:1017C00053600F214FF0FF30FFF78EFF054B0022D3
:1017D0009A60044B07221A60002318460837BD465A
:1017E00080BD00BF10E000E080B582B000AF78603F
:1017F0007868FFF729FF00BF0837BD4680BD80B578
:1018000086B000AF0346B9607A60FB7300237B614A
:10181000FFF73EFF78617A68B9687869FFF78EFF55
:10182000024697F90F3011461846FFF75DFF00BFDB
:101830001837BD4680BD80B582B000AF0346FB714E
:1018400097F907301846FFF731FF00BF0837BD464C
:1018500080BD80B582B000AF78607868FFF7A2FFE6
:10186000034618460837BD4680BD000080B489B0E5
:1018700000AF7860396000237B6100233B61002367
:10188000BB610023FB616BE10122FB6902FA03F3F8
:101890007B613B681B687A6913403B613A697B69ED
:1018A0009A4240F05A813B685B68022B03D03B6848
:1018B0005B68122B23D1FB69DA087B68083253F886
:1018C0002230BB61FB6903F007039B000F2202FA81
:1018D00003F3DB43BA691340BB613B681A69FB69D8
:1018E00003F007039B0002FA03F3BA691343BB61D9
:1018F000FB69DA087B680832B96943F822107B6813
:101900001B68BB61FB695B00032202FA03F3DB4344
:10191000BA691340BB613B685B6803F00302FB6973
:101920005B0002FA03F3BA691343BB617B68BA69CF
:101930001A603B685B68012B0BD03B685B68022B2D
:1019400007D03B685B68112B03D03B685B68122BA8
:1019500030D17B689B68BB61FB695B00032202FAA4
:1019600003F3DB43BA691340BB613B68DA68FB6988
:101970005B0002FA03F3BA691343BB617B68BA697F
:101980009A607B685B68BB610122FB6902FA03F322
:10199000DB43BA691340BB613B685B681B0903F01A
:1019A0000102FB6902FA03F3BA691343BB617B6866
:1019B000BA695A607B68DB68BB61FB695B00032224
:1019C00002FA03F3DB43BA691340BB613B689A68D0
:1019D000FB695B0002FA03F3BA691343BB617B68DE
:1019E000BA69DA603B685B6803F08053002B00F053
:1019F000B4800023FB605F4B5B6C5E4A43F4804322
:101A000053645C4B5B6C03F48043FB60FB685A4A95
:101A1000FB699B08023352F82330BB61FB6903F07A
:101A200003039B000F2202FA03F3DB43BA6913405E
:101A3000BB617B68514A93422BD07B68504A9342EA
:101A400025D07B684F4A93421FD07B684E4A934211
:101A500019D07B684D4A934213D07B684C4A93421D
:101A60000DD07B684B4A934207D07B684A4A934229
:101A700001D107230EE008230CE006230AE005232A
:101A800008E0042306E0032304E0022302E001232C
:101A900000E00023FA6902F0030292009340BA6961
:101AA0001343BB613449FB699B080233BA6941F8AF
:101AB00023203A4B1B68BB613B69DB43BA69134087
:101AC000BB613B685B6803F48033002B03D0BA69C9
:101AD0003B691343BB61314ABB6913602F4B5B68A1
:101AE000BB613B69DB43BA691340BB613B685B6820
:101AF00003F40033002B03D0BA693B691343BB6185
:101B0000264ABB695360254B9B68BB613B69DB433D
:101B1000BA691340BB613B685B6803F48013002B18
:101B200003D0BA693B691343BB611C4ABB6993602C
:101B30001A4BDB68BB613B69DB43BA691340BB618D
:101B40003B685B6803F40013002B03D0BA693B6960
:101B50001343BB61114ABB69D360FB690133FB616D
:101B6000FB690F2B7FF690AE00BF2437BD465DF8B2
:101B7000047B7047003802400038014000000240FA
:101B80000004024000080240000C02400010024025
:101B90000014024000180240001C0240003C0140BA
:101BA00080B485B000AF78600B467B807B681A6993
:101BB0007B881340002B02D00123FB7301E000233C
:101BC000FB73FB7B18461437BD465DF8047B7047FA
:101BD00080B483B000AF78600B467B8013467B7087
:101BE0007B78002B03D07A887B689A6103E07B883E
:101BF0001A047B689A6100BF0C37BD465DF8047B10
:101C00007047000080B586B000AF78607B68002B1D
:101C100001D101232DE27B681B6803F00103002B37
:101C200075D0A34B9B6803F00C03042B0CD0A04B86
:101C30009B6803F00C03082B12D19D4B5B6803F4E7
:101C40008003B3F5800F0BD1994B1B6803F400336D
:101C5000002B5BD07B685B68002B57D1012308E227
:101C60007B685B68B3F5803F06D1914B1B68904A57
:101C700043F4803313601DE07B685B68B3F5A02FED
:101C80000CD18B4B1B688A4A43F480231360884B2A
:101C90001B68874A43F4803313600BE0844B1B6856
:101CA000834A23F480331360814B1B68804A23F4FA
:101CB000802313607B685B68002B13D0FFF7DCF890
:101CC000386108E0FFF7D8F802463B69D31A642B65
:101CD00001D90323CDE1764B1B6803F40033002BBD
:101CE000F0D014E0FFF7C8F8386108E0FFF7C4F857
:101CF00002463B69D31A642B01D90323B9E16C4B2B
:101D00001B6803F40033002BF0D100E000BF7B68B8
:101D10001B6803F00203002B63D0654B9B6803F044
:101D20000C03002B0BD0624B9B6803F00C03082BB9
:101D30001CD15F4B5B6803F48003002B16D15C4B16
:101D40001B6803F00203002B05D07B68DB68012BC6
:101D500001D001238DE1564B1B6823F0F8027B680C
:101D60001B69DB00524913430B603AE07B68DB6878
:101D7000002B20D04F4B01221A60FFF77DF838610D
:101D800008E0FFF779F802463B69D31A022B01D924
:101D900003236EE1464B1B6803F00203002BF0D0D7
:101DA000434B1B6823F0F8027B681B69DB0040494A
:101DB00013430B6015E03F4B00221A60FFF75CF8FD
:101DC000386108E0FFF758F802463B69D31A022B46
:101DD00001D903234DE1364B1B6803F00203002BAE
:101DE000F0D17B681B6803F00803002B30D07B68C0
:101DF0005B69002B16D0304B01221A60FFF73CF8CC
:101E0000386108E0FFF738F802463B69D31A022B25
:101E100001D903232DE1264B5B6F03F00203002B56
:101E2000F0D015E0244B00221A60FFF725F8386146
:101E300008E0FFF721F802463B69D31A022B01D9CB
:101E4000032316E11A4B5B6F03F00203002BF0D162
:101E50007B681B6803F00403002B00F0A0800023C4
:101E6000FB75134B1B6C03F08053002B0FD1002329
:101E7000FB600F4B1B6C0E4A43F0805313640C4BFA
:101E80001B6C03F08053FB60FB680123FB750B4B5D
:101E90001B6803F48073002B21D1084B1B68074A91
:101EA00043F480731360FEF7E7FF386111E000BF71
:101EB0000038024000004742800E47420070004058
:101EC000FEF7DAFF02463B69D31A022B01D903233E
:101ED000CFE06A4B1B6803F48073002BF0D07B6863
:101EE0009B68012B06D1664B1B6F654A43F00103CB
:101EF00013671CE07B689B68052B0CD1604B1B6F44
:101F00005F4A43F0040313675D4B1B6F5C4A43F069
:101F1000010313670BE05A4B1B6F594A23F001036F
:101F20001367574B1B6F564A23F0040313677B68F4
:101F30009B68002B15D0FEF79FFF38610AE0FEF783
:101F40009BFF02463B69D31A41F28832934201D982
:101F500003238EE04A4B1B6F03F00203002BEED0ED
:101F600014E0FEF789FF38610AE0FEF785FF0246BC
:101F70003B69D31A41F28832934201D9032378E0B6
:101F80003F4B1B6F03F00203002BEED1FB7D012BB7
:101F900005D13B4B1B6C3A4A23F0805313647B689A
:101FA0009B69002B64D0364B9B6803F00C03082B15
:101FB0005CD07B689B69022B41D1324B00221A60B6
:101FC000FEF75AFF386108E0FEF756FF02463B690C
:101FD000D31A022B01D903234BE0294B1B6803F0D2
:101FE0000073002BF0D17B68DA697B681B6A1A43A7
:101FF0007B685B6A9B011A437B689B6A5B08013BB9
:102000001B041A437B68DB6A1B061D4913434B60A4
:102010001C4B01221A60FEF72FFF386108E0FEF723
:102020002BFF02463B69D31A022B01D9032320E080
:10203000134B1B6803F00073002BF0D018E0114B1A
:1020400000221A60FEF718FF386108E0FEF714FF5F
:1020500002463B69D31A022B01D9032309E0084B3E
:102060001B6803F00073002BF0D101E0012300E0B6
:10207000002318461837BD4680BD00BF00700040E1
:10208000003802406000474280B584B000AF7860FD
:1020900039607B68002B01D10123CAE0674B1B68C4
:1020A00003F00F033A689A420CD9644B3A68D2B2F3
:1020B0001A70624B1B6803F00F033A689A4201D012
:1020C0000123B6E07B681B6803F00203002B20D0DD
:1020D0007B681B6803F00403002B05D0584B9B68FA
:1020E000574A43F4E05393607B681B6803F008038E
:1020F000002B05D0524B9B68514A43F460439360D8
:102100004F4B9B6823F0F0027B689B684C4913435C
:102110008B607B681B6803F00103002B44D07B6855
:102120005B68012B07D1464B1B6803F40033002B7F
:1021300019D101237DE07B685B68022B03D07B68AB
:102140005B68032B07D13E4B1B6803F00073002B29
:1021500009D101236DE03A4B1B6803F00203002B09
:1021600001D1012365E0364B9B6823F003027B68B5
:102170005B68334913438B60FEF77EFEF8600AE02C
:10218000FEF77AFE0246FB68D31A41F28832934288
:1021900001D903234DE02A4B9B6803F00C027B68B6
:1021A0005B689B009A42EBD1244B1B6803F00F0342
:1021B0003A689A420CD2214B3A68D2B21A701F4B3D
:1021C0001B6803F00F033A689A4201D0012330E004
:1021D0007B681B6803F00403002B08D0184B9B6836
:1021E00023F4E0527B68DB68154913438B607B68FE
:1021F0001B6803F00803002B09D0114B9B6823F4E4
:1022000060427B681B69DB000D4913438B6000F063
:102210001DF801460A4B9B681B0903F00F03094A8E
:10222000D35C21FA03F3084A13600020FEF7E0FDB7
:10223000002318461037BD4680BD00BF003C024059
:1022400000380240AC700008B8000020F0B585B03E
:1022500000AF00237B600023FB6000233B60002372
:10226000BB60504B9B6803F00C03042B07D0082B7A
:1022700008D0002B40F08D804B4BBB608CE04B4B6B
:10228000BB6089E0474B5B6803F03F037B60454BD5
:102290005B6803F48003002B23D0424B5B689B09EF
:1022A0004FF0000440F2FF114FF0000203EA010575
:1022B00004EA02063D4A02FB06F1002202FB05F297
:1022C0000A443A49A5FB0101531819467B684FF0AF
:1022D00000041A462346FEF7E9FB03460C46FB6062
:1022E00049E0304B5B689B094FF0000440F2FF115E
:1022F0004FF0000203EA010504EA020629463246CD
:102300004FF000034FF00004540144EAD1644B0144
:1023100019462246491B62EB06024FF000034FF0BC
:102320000004940144EA91648B015B1A64EB02049B
:102330004FF000014FF00002E20042EA5372D90070
:102340000B4614465B1944EB06044FF000014FF0B6
:102350000002A20242EA935299020B461446184622
:1023600021467B684FF000041A462346FEF79EFB89
:1023700003460C46FB600B4B5B681B0C03F003032E
:1023800001335B003B60FA683B68B2FBF3F3BB6070
:1023900002E0054BBB6000BFBB6818461437BD4662
:1023A000F0BD00BF003802400024F40040787D01F9
:1023B00080B400AF034B1B681846BD465DF8047B34
:1023C000704700BFB800002080B500AFFFF7F0FFF6
:1023D0000146054B9B689B0A03F00703034AD35C45
:1023E00021FA03F3184680BD00380240BC70000893
:1023F00080B500AFFFF7DCFF0146054B9B685B0B28
:1024000003F00703034AD35C21FA03F3184680BDA7
:1024100000380240BC70000880B582B000AF786020
:102420007B68002B01D1012356E07B6800229A6271
:102430007B6893F85130DBB2002B06D17B68002219
:1024400083F85020786803F045FA7B68022283F80D
:1024500051207B681B681A687B681B6822F0400269
:102460001A607B685A687B689B681A437B68DB68E4
:102470001A437B681B691A437B685B691A437B6854
:102480009B6903F400731A437B68DB691A437B681A
:102490001B6A42EA03017B689A6A7B681B680A43ED
:1024A0001A607B689B691B0C03F004017B685A6A05
:1024B0007B681B680A435A607B681B68DA697B6823
:1024C0001B6822F40062DA617B6800225A657B682F
:1024D000012283F85120002318460837BD4680BDED
:1024E00080B582B000AF78607B68002B01D10123FA
:1024F0001DE07B6893F83D30DBB2002B06D17B6892
:10250000002283F83C20786803F02CFA7B680222D2
:1025100083F83D207B681A687B68043319461046AF
:1025200000F018FC7B68012283F83D200023184648
:102530000837BD4680BD80B485B000AF78607B6849
:102540001B68DA687B681B6842F00102DA607B680E
:102550001B689B6803F00703FB60FB68062B07D032
:102560007B681B681A687B681B6842F001021A606E
:10257000002318461437BD465DF8047B704780B5CC
:1025800082B000AF78607B68002B01D101231DE091
:102590007B6893F83D30DBB2002B06D17B680022CC
:1025A00083F83C20786800F015F87B68022283F8F5
:1025B0003D207B681A687B6804331946104600F09A
:1025C000C9FB7B68012283F83D20002318460837A9
:1025D000BD4680BD80B483B000AF786000BF0C37CB
:1025E000BD465DF8047B704780B584B000AF78606D
:1025F00039607B681B6801223968184600F094FE38
:102600007B681B68154A934204D07B681B68144A98
:10261000934201D1012300E00023002B07D07B6807
:102620001B685A6C7B681B6842F400425A647B68E2
:102630001B689B6803F00703FB60FB68062B07D051
:102640007B681B681A687B681B6842F001021A608D
:10265000002318461037BD4680BD00BF0000014072
:102660000004014080B586B000AF786039607B68B7
:10267000002B01D1012383E07B6893F83D30DBB26E
:10268000002B06D17B68002283F83C20786803F099
:10269000BBF97B68022283F83D207B681B689B683E
:1026A0007A68126823F4804323F0070393607B6801
:1026B0001A687B6804331946104600F04BFB7B68B0
:1026C0001B689B687B617B681B689B693B617B68BF
:1026D0001B681B6AFB603B681B687A6913437B615C
:1026E0003B6923F4407323F003033B613B689A6822
:1026F0003B689B691B0213433A6913433B613B6987
:1027000023F4406323F00C033B613B6923F47043E3
:1027100023F0F0033B613B68DA683B68DB691B022E
:1027200013433A6913433B613B681B691A013B68D9
:102730001B6A1B0313433A6913433B61FB6823F095
:102740002203FB60FB6823F08803FB603B685A6848
:102750003B685B691B011343FA681343FB607B68AA
:102760001B687A699A607B681B683A699A617B6822
:102770001B68FA681A627B68012283F83D200023F7
:1027800018461837BD4680BD80B582B000AF78606E
:1027900039603B68002B02D0042B08D00FE07B6827
:1027A0001B6801220021184600F0BEFD16E07B6880
:1027B0001B6801220421184600F0B6FD0EE07B687C
:1027C0001B6801220021184600F0AEFD7B681B68E3
:1027D00001220421184600F0A7FD00BF7B681B689A
:1027E0001A687B681B6842F001021A6000231846D1
:1027F0000837BD4680BD80B582B000AF78607B6889
:102800001B681B6903F00203022B22D17B681B6843
:10281000DB6803F00203022B1BD17B681B686FF09F
:1028200002021A617B6801221A777B681B689B6928
:1028300003F00303002B03D0786800F06CFA05E086
:10284000786800F05EFA786800F06FFA7B68002222
:102850001A777B681B681B6903F00403042B22D1E1
:102860007B681B68DB6803F00403042B1BD17B68C7
:102870001B686FF004021A617B6802221A777B687A
:102880001B689B6903F44073002B03D0786800F049
:1028900042FA05E0786800F034FA786800F045FA0A
:1028A0007B6800221A777B681B681B6903F00803AA
:1028B000082B22D17B681B68DB6803F00803082B18
:1028C0001BD17B681B686FF008021A617B680422C9
:1028D0001A777B681B68DB6903F00303002B03D0C6
:1028E000786800F018FA05E0786800F00AFA78686D
:1028F00000F01BFA7B6800221A777B681B681B6953
:1029000003F01003102B22D17B681B68DB6803F0F7
:102910001003102B1BD17B681B686FF010021A612B
:102920007B6808221A777B681B68DB6903F44073B5
:10293000002B03D0786800F0EEF905E0786800F02D
:10294000E0F9786800F0F1F97B6800221A777B687B
:102950001B681B6903F00103012B0ED17B681B6808
:10296000DB6803F00103012B07D17B681B686FF064
:1029700001021A61786801F0DFFC7B681B681B6943
:1029800003F08003802B0ED17B681B68DB6803F0AB
:102990008003802B07D17B681B686FF080021A616F
:1029A000786800F035FD7B681B681B6903F0400305
:1029B000402B0ED17B681B68DB6803F04003402B83
:1029C00007D17B681B686FF040021A61786800F0DD
:1029D000B6F97B681B681B6903F02003202B0ED11E
:1029E0007B681B68DB6803F02003202B07D17B6822
:1029F0001B686FF020021A61786800F0FFFC00BFCE
:102A00000837BD4680BD000080B584B000AFF860D7
:102A1000B9607A60FB6893F83C30012B01D1022346
:102A2000B4E0FB68012283F83C20FB68022283F8B3
:102A30003D207B680C2B00F29F8001A252F823F00E
:102A4000752A0008792B0008792B0008792B0008DB
:102A5000B52A0008792B0008792B0008792B00088B
:102A6000F72A0008792B0008792B0008792B000839
:102A7000372B0008FB681B68B968184600F00AFA93
:102A8000FB681B689A69FB681B6842F008029A6140
:102A9000FB681B689A69FB681B6822F004029A6154
:102AA000FB681B689969BB681A69FB681B680A4365
:102AB0009A6162E0FB681B68B968184600F05AFA30
:102AC000FB681B689A69FB681B6842F400629A61A4
:102AD000FB681B689A69FB681B6822F480629A6134
:102AE000FB681B689969BB681B691A02FB681B6855
:102AF0000A439A6141E0FB681B68B968184600F018
:102B0000AFFAFB681B68DA69FB681B6842F00802D1
:102B1000DA61FB681B68DA69FB681B6822F0040253
:102B2000DA61FB681B68D969BB681A69FB681B68B6
:102B30000A43DA6121E0FB681B68B968184600F0B7
:102B400003FBFB681B68DA69FB681B6842F40062E0
:102B5000DA61FB681B68DA69FB681B6822F4806233
:102B6000DA61FB681B68D969BB681B691A02FB68DC
:102B70001B680A43DA6100E000BFFB68012283F8AA
:102B80003D20FB68002283F83C20002318461037C4
:102B9000BD4680BD80B584B000AF786039607B6889
:102BA00093F83C30012B01D10223A6E07B6801227F
:102BB00083F83C207B68022283F83D207B681B68F9
:102BC0009B68FB60FB6823F07703FB60FB6823F4E2
:102BD0007F43FB607B681B68FA689A603B681B68F0
:102BE000402B67D0402B0BD8102B73D0102B02D862
:102BF000002B6FD078E0202B6CD0302B6AD073E0A4
:102C0000702B0DD0702B04D8502B33D0602B41D0BB
:102C10006AE0B3F5805F66D0B3F5005F17D063E07C
:102C20007B6818683B6899683B685A683B68DB6852
:102C300000F05AFB7B681B689B68FB60FB6843F0F5
:102C40007703FB607B681B68FA689A604CE07B68DE
:102C500018683B6899683B685A683B68DB6800F015
:102C600043FB7B681B689A687B681B6842F4804260
:102C70009A6039E07B6818683B6859683B68DB6894
:102C80001A4600F0B7FA7B681B685021184600F01E
:102C900010FB29E07B6818683B6859683B68DB6873
:102CA0001A4600F0D6FA7B681B686021184600F0CF
:102CB00000FB19E07B6818683B6859683B68DB6873
:102CC0001A4600F097FA7B681B684021184600F00E
:102CD000F0FA09E07B681A683B681B6819461046E1
:102CE00000F0E7FA00E000BF7B68012283F83D2096
:102CF0007B68002283F83C20002318461037BD462D
:102D000080BD80B483B000AF786000BF0C37BD4693
:102D10005DF8047B704780B483B000AF786000BF7B
:102D20000C37BD465DF8047B704780B483B000AFBC
:102D3000786000BF0C37BD465DF8047B704780B4F7
:102D400083B000AF786000BF0C37BD465DF8047BF0
:102D50007047000080B485B000AF786039607B6850
:102D60001B68FB607B68404A934213D07B68B3F1D9
:102D7000804F0FD07B683D4A93420BD07B683C4A22
:102D8000934207D07B683B4A934203D07B683A4A20
:102D9000934208D1FB6823F07003FB603B685B68DB
:102DA000FA681343FB607B682F4A93422BD07B6801
:102DB000B3F1804F27D07B682C4A934223D07B68A5
:102DC0002B4A93421FD07B682A4A93421BD07B68D0
:102DD000294A934217D07B68284A934213D07B68D4
:102DE000274A93420FD07B68264A93420BD07B68D8
:102DF000254A934207D07B68244A934203D07B68DC
:102E0000234A934208D1FB6823F44073FB603B687C
:102E1000DB68FA681343FB60FB6823F080023B68C1
:102E20005B691343FB607B68FA681A603B689A68C9
:102E30007B68DA623B681A687B689A627B680A4A38
:102E4000934203D07B680C4A934203D13B681A69D2
:102E50007B681A637B6801225A6100BF1437BD4644
:102E60005DF8047B704700BF000001400004004093
:102E700000080040000C00400004014000400140F8
:102E8000004401400048014000180040001C004080
:102E90000020004080B487B000AF786039607B6864
:102EA0001B6A23F001027B681A627B681B6A7B61E4
:102EB0007B685B683B617B689B69FB60FB6823F018
:102EC0007003FB60FB6823F00303FB603B681B6837
:102ED000FA681343FB607B6923F002037B613B6864
:102EE0009B687A6913437B617B68204A934203D0D5
:102EF0007B681F4A93420CD17B6923F008037B61F6
:102F00003B68DB687A6913437B617B6923F00403C8
:102F10007B617B68154A934203D07B68144A9342D5
:102F200011D13B6923F480733B613B6923F4007347
:102F30003B613B685B693A6913433B613B689B6952
:102F40003A6913433B617B683A695A607B68FA6867
:102F50009A613B685A687B685A637B687A691A622F
:102F600000BF1C37BD465DF8047B70470000014080
:102F70000004014080B487B000AF786039607B689E
:102F80001B6A23F010027B681A627B681B6A7B61F4
:102F90007B685B683B617B689B69FB60FB6823F433
:102FA000E043FB60FB6823F44073FB603B681B68F5
:102FB0001B02FA681343FB607B6923F020037B61EB
:102FC0003B689B681B017A6913437B617B68224ADB
:102FD000934203D07B68214A93420DD17B6923F051
:102FE00080037B613B68DB681B017A6913437B616B
:102FF0007B6923F040037B617B68174A934203D0CF
:103000007B68164A934213D13B6923F480633B618A
:103010003B6923F400633B613B685B699B003A6951
:1030200013433B613B689B699B003A6913433B61D7
:103030007B683A695A607B68FA689A613B685A68AB
:103040007B689A637B687A691A6200BF1C37BD4649
:103050005DF8047B704700BF0000014000040140A0
:1030600080B487B000AF786039607B681B6A23F456
:1030700080727B681A627B681B6A7B617B685B6815
:103080003B617B68DB69FB60FB6823F07003FB60DE
:10309000FB6823F00303FB603B681B68FA6813437B
:1030A000FB607B6923F400737B613B689B681B02B8
:1030B0007A6913437B617B68214A934203D07B6822
:1030C000204A93420DD17B6923F400637B613B6806
:1030D000DB681B027A6913437B617B6923F480639D
:1030E0007B617B68164A934203D07B68154A934202
:1030F00013D13B6923F480533B613B6923F40053B4
:103100003B613B685B691B013A6913433B613B6868
:103110009B691B013A6913433B617B683A695A60BA
:103120007B68FA68DA613B685A687B68DA637B68B7
:103130007A691A6200BF1C37BD465DF8047B704790
:10314000000001400004014080B487B000AF786007
:1031500039607B681B6A23F480527B681A627B6843
:103160001B6A3B617B685B687B617B68DB69FB603A
:10317000FB6823F4E043FB60FB6823F44073FB60CF
:103180003B681B681B02FA681343FB603B6923F42E
:1031900000533B613B689B681B033A6913433B61E7
:1031A0007B68124A934203D07B68114A934209D14B
:1031B0007B6923F480437B613B685B699B017A698F
:1031C00013437B617B687A695A607B68FA68DA61CD
:1031D0003B685A687B681A647B683A691A6200BF68
:1031E0001C37BD465DF8047B704700BF00000140FE
:1031F0000004014080B487B000AFF860B9607A6025
:10320000FB681B6A7B61FB681B6A23F00102FB6899
:103210001A62FB689B693B613B6923F0F0033B61E9
:103220007B681B013A6913433B617B6923F00A0306
:103230007B617A69BB6813437B61FB683A699A6179
:10324000FB687A691A6200BF1C37BD465DF8047BD3
:10325000704780B487B000AFF860B9607A60FB68EF
:103260001B6A23F01002FB681A62FB689B697B6192
:10327000FB681B6A3B617B6923F470437B617B685D
:103280001B037A6913437B613B6923F0A0033B6115
:10329000BB681B013A6913433B61FB687A699A6119
:1032A000FB683A691A6200BF1C37BD465DF8047BB3
:1032B000704780B485B000AF786039607B689B68E8
:1032C000FB60FB6823F07003FB603A68FB68134304
:1032D00043F00703FB607B68FA689A6000BF14370D
:1032E000BD465DF8047B704780B487B000AFF860DE
:1032F000B9607A603B60FB689B687B617B6923F403
:103300007F437B613B681A027B681A43BB681343A7
:103310007A6913437B61FB687A699A6000BF1C3746
:10332000BD465DF8047B704780B487B000AFF8609D
:10333000B9607A60BB6803F01F03012202FA03F34D
:103340007B61FB681A6A7B69DB431A40FB681A627F
:10335000FB681A6ABB6803F01F03796801FA03F37C
:103360001A43FB681A6200BF1C37BD465DF8047B38
:10337000704780B485B000AF786039607B6893F89F
:103380003C30012B01D1022332E07B68012283F81B
:103390003C207B68022283F83D207B681B685B68C9
:1033A000FB607B681B689B68BB60FB6823F0700355
:1033B000FB603B681B68FA681343FB60BB6823F043
:1033C0008003BB603B685B68BA681343BB607B6883
:1033D0001B68FA685A607B681B68BA689A607B68E9
:1033E000012283F83D207B68002283F83C200023E3
:1033F00018461437BD465DF8047B704780B483B02F
:1034000000AF786000BF0C37BD465DF8047B7047A5
:1034100080B483B000AF786000BF0C37BD465DF864
:10342000047B704780B582B000AF78607B68002B6A
:1034300001D101233FE07B6893F83930DBB2002BE8
:1034400006D17B68002283F83820786802F0D8FB28
:103450007B68242283F839207B681B68DA687B68E4
:103460001B6822F40052DA60786800F00BF97B6880
:103470001B681A697B681B6822F490421A617B689A
:103480001B685A697B681B6822F02A025A617B68B4
:103490001B68DA687B681B6842F40052DA607B685C
:1034A0000022DA637B68202283F839207B6820229F
:1034B00083F83A20002318460837BD4680BD80B502
:1034C00088B002AFF860B9603B601346FB80002310
:1034D0007B61FB6893F83930DBB2202B40F08380AE
:1034E000BB68002B02D0FB88002B01D101237BE0BD
:1034F000FB6893F83830012B01D1022374E0FB689C
:10350000012283F83820FB680022DA63FB6821225D
:1035100083F83920FDF7B0FC7861FB68FA889A845B
:10352000FB68FA88DA8442E0FB68DB8C9BB2013BE3
:103530009AB2FB68DA84FB689B68B3F5805F22D19E
:103540003B6800937B6900228021F86800F050F806
:103550000346002B01D0032346E0BB683B613B6977
:103560001B881A46FB681B68C2F308025A60FB6896
:103570001B69002B03D1BB680233BB6017E0BB683B
:103580000133BB6013E03B6800937B69002280211C
:10359000F86800F02DF80346002B01D0032323E048
:1035A000BB685A1CBA601A78FB681B685A60FB68D3
:1035B000DB8C9BB2002BB7D13B6800937B69002268
:1035C0004021F86800F014F80346002B01D00323D3
:1035D0000AE0FB68202283F83920FB68002283F888
:1035E0003820002300E0022318461837BD4680BD6E
:1035F00080B584B000AFF860B9603B601346FB71E2
:103600002CE0BB69B3F1FF3F28D0BB69002B07D08A
:10361000FDF732FC02463B68D31ABA699A421DD2C2
:10362000FB681B68DA68FB681B6822F4D072DA60FA
:10363000FB681B685A69FB681B6822F001025A612B
:10364000FB68202283F83920FB68202283F83A2087
:10365000FB68002283F8382003230FE0FB681B6817
:103660001A68BB681340BA689A420CBF0123002352
:10367000DBB21A46FB799A42C3D0002318461037B2
:10368000BD4680BDB0B584B000AF78607B681B6874
:103690001B6923F440517B68DA687B681B680A4326
:1036A0001A617B689A687B681B691A437B685B694F
:1036B0001A437B68DB691343FB607B681B68DB682C
:1036C00023F4164323F00C037A681268F9680B435D
:1036D000D3607B681B685B6923F440717B689A69DF
:1036E0007B681B680A435A617B68DB69B3F5004F4E
:1036F00040F0E4807B681B68AB4A934204D07B684F
:103700001B68AA4A93426CD1FEF772FE024613462A
:103710009B0013449A001A447B685B685B00B2FB11
:10372000F3F3A34AA2FB03235B091C01FEF760FE2F
:10373000024613469B0013449A001A447B685B6858
:103740005B00B2FBF3F5FEF753FE024613469B0007
:1037500013449A001A447B685B685B00B2FBF3F386
:10376000934AA2FB03235B09642202FB03F3EB1AD7
:10377000DB0032338E4AA2FB03235B095B0003F4B8
:10378000F8731C44FEF734FE024613469B001344B4
:103790009A001A447B685B685B00B2FBF3F5FEF7A6
:1037A00027FE024613469B0013449A001A447B6886
:1037B0005B685B00B2FBF3F37D4AA2FB03235B096A
:1037C000642202FB03F3EB1ADB003233784AA2FBDC
:1037D00003235B0903F007027B681B6822449A609D
:1037E00054E1FEF7F1FD024613469B0013449A0094
:1037F0001A447B685B685B00B2FBF3F36C4AA2FB84
:1038000003235B091C01FEF7DFFD024613469B0004
:1038100013449A001A447B685B685B00B2FBF3F5C3
:10382000FEF7D2FD024613469B0013449A001A4449
:103830007B685B685B00B2FBF3F35D4AA2FB03238A
:103840005B09642202FB03F3EB1ADB003233584AB4
:10385000A2FB03235B095B0003F4F8731C44FEF72F
:10386000B3FD024613469B0013449A001A447B683A
:103870005B685B00B2FBF3F5FEF7A6FD024613465C
:103880009B0013449A001A447B685B685B00B2FBA0
:10389000F3F3474AA2FB03235B09642202FB03F311
:1038A000EB1ADB003233424AA2FB03235B0903F02D
:1038B00007027B681B6822449A60E7E07B681B680C
:1038C000394A934204D07B681B68384A934271D1CD
:1038D000FEF78EFD024613469B0013449A001A44DD
:1038E0007B685B689B00B2FBF3F3314AA2FB0323C6
:1038F0005B091C01FEF77CFD024613469B00134446
:103900009A001A447B685B689B00B2FBF3F5FEF7F4
:103910006FFD024613469B0013449A001A447B68CD
:103920005B689B00B2FBF3F3214AA2FB03235B0914
:10393000642202FB03F3EB1A1B0132331C4AA2FB85
:1039400003235B0903F0F0031C44FEF751FD02461C
:1039500013469B0013449A001A447B685B689B00E3
:10396000B2FBF3F5FEF744FD024613469B001344F9
:103970009A001A447B685B689B00B2FBF3F30C4A25
:10398000A2FB03235B09642202FB03F3EB1A1B0176
:103990003233074AA2FB03235B0903F00F027B6863
:1039A0001B6822449A6071E000100140001401403D
:1039B0001F85EB51FEF708FD024613469B0013449A
:1039C0009A001A447B685B689B00B2FBF3F3314AB0
:1039D000A2FB03235B091C01FEF7F6FC024613461B
:1039E0009B0013449A001A447B685B689B00B2FBFF
:1039F000F3F5FEF7E9FC024613469B0013449A00D8
:103A00001A447B685B689B00B2FBF3F3214AA2FB7C
:103A100003235B09642202FB03F3EB1A1B0132331D
:103A20001C4AA2FB03235B0903F0F0031C44FEF7CE
:103A3000CBFC024613469B0013449A001A447B6851
:103A40005B689B00B2FBF3F5FEF7BEFC0246134633
:103A50009B0013449A001A447B685B689B00B2FB8E
:103A6000F3F30C4AA2FB03235B09642202FB03F37A
:103A7000EB1A1B013233074AA2FB03235B0903F055
:103A80000F027B681B6822449A60FFE700BF103773
:103A9000BD46B0BD1F85EB5180B400AF4FF00003B1
:103AA000084A1360084A1360084B4FF000021A607E
:103AB000074A138843F00203138000BFBD465DF838
:103AC000047B7047E8090020640E0020500A0020A3
:103AD000500E002080B400AF4FF00003084A13607E
:103AE000084A1360084B4FF000021A60074A138817
:103AF0006FF34103138000BFBD465DF8047B704740
:103B0000E8090020640E0020500A0020500E00201A
:103B100080B582B000AF03460A46FB711346BB7105
:103B2000FB79002B3ED1BB79002B0FD10122202144
:103B30003F48FEF74DF8002210213D48FEF748F8B7
:103B4000012201213B48FEF743F86CE0BB79012BD1
:103B50000FD1002220213648FEF73AF80122102129
:103B60003348FEF735F8012201213248FEF730F8DC
:103B700059E0BB79022B0FD1012220212C48FEF7FE
:103B800027F8012210212A48FEF722F801220121FC
:103B90002848FEF71DF846E0002201212548FEF7DF
:103BA00017F840E0BB79002B10D1012202212148F7
:103BB000FEF70EF800224FF480611E48FEF708F869
:103BC000012201211B48FEF703F82CE0BB79012BF1
:103BD00010D1002202211748FDF7FAFF01224FF40D
:103BE00080611448FDF7F4FF012201211148FDF71F
:103BF000EFFF18E0BB79022B10D1012202210D4802
:103C0000FDF7E6FF01224FF480610A48FDF7E0FF6F
:103C1000012201210748FDF7DBFF04E0002201211A
:103C20000448FDF7D5FF00BF0837BD4680BD00BF83
:103C3000000802400004024090B583B000AF044683
:103C4000084611461A462346FB800346BB800B46B6
:103C50007B8013463B80BB8807EE903AF8EE677A8C
:103C6000204BC3ED007A204BC3ED007A7B8807EE32
:103C7000903AF8EE677A1D4BC3ED007A1C4BC3ED0A
:103C8000007AFB8807EE903AF8EE677A194BC3ED9D
:103C9000007A194BC3ED007AFFF7FEFE00BF3B88A8
:103CA00007EE903AB8EEE77A144BD3ED007AB4EE13
:103CB000E77AF1EE10FAF2DC3B8807EE903AB8EEC4
:103CC000E77A0F4BD3ED007AB4EEE77AF1EE10FA13
:103CD000E5DCFFF7FFFE01F057FD00BF0C37BD46E6
:103CE00090BD00BF540E0020480A0020B001002003
:103CF00078060020E0090020440C0020640E00201B
:103D0000E809002090B585B000AF0446084611468A
:103D10001A462346FB800346BB800B467B80134636
:103D20003B80524B1B68FB60BB8807EE903AF8EE75
:103D3000677A4F4BC3ED007A4E4BC3ED007A7B8818
:103D400007EE903AF8EE677A4B4BC3ED007A4B4B97
:103D5000C3ED007AB7F9063007EE903AF8EEE77A4D
:103D6000474BC3ED007A474BC3ED007AFFF794FE53
:103D70003B8807EE903AB8EEE77A3E4BD3ED006A07
:103D80003C4BD3ED007A66EEA76A97ED036AD7ED58
:103D9000037A66EE277A36EEE76A3A4BD3ED007A7D
:103DA00077EEA76AC6EE267A77EE677AFDEEE77AB7
:103DB00017EE903A7B814FF00003314A1360314A8D
:103DC0001360B7F90A30002B1CDD00BFB7F90A30C9
:103DD00007EE903AB8EEE77A2B4BD3ED007AB4EECB
:103DE000E77AF1EE10FAF1DCB7F90A3007EE903A13
:103DF000B8EEE77A254BD3ED007AB4EEE77AF1EE30
:103E000010FAE3DC224802F01BF9B7F9063007EE9E
:103E1000903AF8EEE77A1A4BC3ED007A194BC3EDEE
:103E2000007A00BF3B8807EE903AB8EEE77A164B6F
:103E3000D3ED007AB4EEE77AF1EE10FAF2DC3B88CB
:103E400007EE903AB8EEE77A104BD3ED007AB4EE75
:103E5000E77AF1EE10FAE5DC0E4802F0F1F8FFF730
:103E600039FE00BF1437BD4690BD00BFEC090020ED
:103E7000540E0020480A0020B001002078060020DF
:103E8000E0090020440C0020640E0020E809002016
:103E90007C6F0008846F000880B582B000AF0346D5
:103EA000FB80194B194A1360194A1360194B1A4ABF
:103EB00013601A4A13604FF00003194A1360194A3D
:103EC0001360FFF7E9FD00BFFB8807EE903AB8EEFC
:103ED000E77A154BD3ED007AB4EEE77AF1EE10FAFB
:103EE000F2DCFB8807EE903AB8EEE77A0F4BD3EDA1
:103EF000007AB4EEE77AF1EE10FAE5DCFFF7EAFDBE
:103F000000BF0837BD4680BD00001643540E002098
:103F1000480A002000009643B001002078060020E7
:103F2000E0090020440C0020640E0020E809002075
:103F300080B500AF0C4A138843F0040313800A4A8B
:103F4000138843F008031380084B4FF000021A60F7
:103F50005A234FF4C87200214FF47A70FFF76CFEB9
:103F600001F012FC00BF80BD500E0020B401002003
:103F700080B500AF0B4A138843F004031380094A4D
:103F8000138843F008031380074B4FF000021A60B8
:103F90005A234FF4C87200210448FFF7B3FE00BF54
:103FA00080BD00BF500E0020B401002018FCFFFFB0
:103FB00080B586B000AF00237B617969714801F05C
:103FC000CBFF7B69DBB203F00103D8B27B69DBB2C4
:103FD00003F00203D9B27B69DBB203F00403DBB266
:103FE0001A4601F08FFB684BD3ED007AB3EE047AEA
:103FF000F4EEC77AF1EE10FA25DB7B6901337B61C1
:10400000614B4FF000021A607B69072B01DD002332
:104010007B6179695D4801F09FFF7B69013B5C4AE8
:1040200052F833007B69013B594ADB0013445B685B
:10403000194601F007FB574B1A69564B5B69194645
:10404000104601F0FFFA504BD3ED007ABBEE047A34
:10405000F4EEC77AF1EE10FA25D87B69013B7B615B
:10406000494B4FF000021A607B69002B01DA0723ED
:104070007B617969454801F06FFF7B69013B444AE8
:1040800052F833007B69013B414ADB0013445B6813
:10409000194601F0D7FA3F4B1A693E4B5B69194646
:1040A000104601F0CFFA4FF400613B48FDF778FD70
:1040B0000346002B85D13220FCF7EAFE00BF4FF407
:1040C00000613548FDF76CFD0346002BF7D07B6996
:1040D000072B3FF676AF01A252F823F0FD4000080F
:1040E00005410008254100083F41000859410008EA
:1040F00073410008C33F0008C33F0008274801F090
:104100009FFF3EE0264801F09BFF00233B6105E056
:10411000B420FFF7C1FE3B6901333B613B69032BD0
:10412000F6DD2EE01F4801F08BFF0023FB6002E06C
:10413000FB680133FB60FB680F2BF9DD21E01A48B7
:1041400001F07EFF0023BB6002E0BB680133BB606F
:10415000BB680F2BF9DD14E0144801F071FF002358
:104160007B6002E07B6801337B607B68072BF9DDB5
:1041700007E00F4801F064FFFFF7DAFEFFF7F8FEF3
:1041800000BF1EE78C6F0008E8090020A86F000838
:10419000600000200800002000000240B46F00080A
:1041A000C46F0008E86F0008F46F00080070000892
:1041B0000C70000880B582B000AF00237B60796886
:1041C000474801F0C9FE7B68DBB203F00103D8B2B7
:1041D0007B68DBB203F00203D9B27B68DBB203F089
:1041E0000403DBB21A4601F08DFA3E4BD3ED007AA0
:1041F000B3EE047AF4EEC77AF1EE10FA25DB7B68B1
:1042000001337B60374B4FF000021A607B68072B4D
:1042100001DD00237B607968334801F09DFE7B68F7
:10422000013B324A52F833007B68013B2F4ADB00E6
:1042300013445B68194601F005FA2D4B1A692C4BA3
:104240005B691946104601F0FDF9264BD3ED007A63
:10425000BBEE047AF4EEC77AF1EE10FA25D87B684B
:10426000013B7B601F4B4FF000021A607B68002B04
:1042700001DA07237B6079681B4801F06DFE7B68DB
:10428000013B1A4A52F833007B68013B174ADB00B6
:1042900013445B68194601F0D5F9154B1A69144BA4
:1042A0005B691946104601F0CDF94FF400611148E1
:1042B000FDF776FC0346002B85D13220FCF7E8FDA4
:1042C00000BF4FF400610B48FDF76AFC0346002B6A
:1042D000F7D07B68012B02D1FFF76AFE00BF72E7BF
:1042E0002C700008E8090020A86F0008600000207A
:1042F000080000200000024080B584B000AF786064
:104300007B680A2B08D10D23FB6007F10C01012308
:1043100001220748FFF7D3F8391D01230122044881
:10432000FFF7CDF8002318461037BD4680BD00BF0B
:10433000580A002000000000B0B58CB000AF7860D3
:104340006023FB6000237B610023FB617B68AE4A36
:10435000934240F0FB83AD4B5B6A07EE903AF8EE78
:10436000677AAB4BC3ED007AAA4B5B6A07EE903AD3
:10437000F8EE677AA84BC3ED007AA54BD3ED007A2F
:104380009FEDA67AF4EEC77AF1EE10FA09DDA04BA4
:10439000D3ED007A9FEDA27A77EEC77A9C4BC3EDFE
:1043A000007A9D4BD3ED007A9FED9C7AF4EEC77AAC
:1043B000F1EE10FA09DD984BD3ED007A9FED987A73
:1043C00077EEC77A944BC3ED007A934BD3ED007A26
:1043D000F1EE677A904BC3ED007A924B1B6818465A
:1043E000FCF7AAF804460D46894B1B681846FCF7F3
:1043F000A3F881A3D3E90023FCF7F6F802460B46A5
:1044000020462946FBF73AFF03460C46184621464C
:10441000FCF7FCFA0246834B1A60834B1B68184674
:10442000FCF78AF804460D467B4B1B681846FCF7E0
:1044300083F871A3D3E90023FCF7D6F802460B46B4
:1044400020462946FBF71AFF03460C46184621462C
:10445000FCF7DCFA0246744B1A606D4B1B68184679
:10446000FCF76AF864A3D3E90023FCF7BDF8034620
:104470000C461846214662A3D3E90023FCF7DEF977
:1044800003460C4618462146FCF7C0FA0246674B25
:104490001A60614B1B681846FCF74EF856A3D3E927
:1044A0000023FCF7A1F803460C461846214654A306
:1044B000D3E90023FCF7C2F903460C46184621460F
:1044C000FCF7A4FA02465A4B1A60504B00225A627B
:1044D000504B00225A62574B1B88C3F34003DBB298
:1044E000002B00F0AF81544B1B681846FCF724F8F2
:1044F00043A3D3E90023FCF777F803460C4625468F
:104500001C464E4B1B681846FCF716F802460B4635
:1045100020462946FBF7B2FE03460C4618462146C4
:10452000FCF774FA0246454B1A60444B93ED007A4F
:10453000434BD3ED007AB4EEE77AF1EE10FA03DDE7
:104540003F4BD3ED007A02E03C4BD3ED007A3D4B7C
:1045500093ED007AF4EEC77AF1EE10FA10DD374BE6
:1045600093ED007A364BD3ED007AB4EEE77AF1EEB4
:1045700010FA02DD324B1B6804E0304B1B6801E08F
:10458000304B1B682D4A13602C4B93ED007A274B60
:10459000D3ED007A77EE677A2B4BC3ED007A2A4B86
:1045A000D3ED007AB1EE007A67EE877A274BC3ED40
:1045B000007A264BD3ED007AF5EEC07AF1EE10FAD0
:1045C00048DD00210020FFF7A3FA204BD3ED007A4D
:1045D000FCEEE77A17EE903A3B6107F10C030022FC
:1045E00019461B48FEF710FA00211948FDF7FCFF99
:1045F00051E000BFAFF30080139823C144E8543F5B
:10460000FCA9F1D24D62503FA40A002000080040EE
:10461000B8020020000401409C0A002000401C4712
:1046200000FF7F47640E0020E8090020EC0900200D
:10463000C4020020500E0020440C0020E80A002094
:1046400078060020480A0020540A0020980A00201A
:10465000000B0020B24BD3ED007AF5EEC07AF1EEFC
:1046600010FA18D501210020FFF752FAAC4BD3ED18
:10467000007AF1EE677AFCEEE77A17EE903A3B614A
:1046800007F10C0300221946A648FEF7BDF90021E8
:10469000A448FDF7A9FFA44B1B681846FBF74CFF85
:1046A0009DA3D3E90023FBF79FFF03460C46254655
:1046B0001C469E4B1B681846FBF73EFF02460B4606
:1046C00020462946FBF7DAFD03460C4618462146EC
:1046D000FCF79CF90246954B1A60944B93ED007AD7
:1046E000934BD3ED007AB4EEE77AF1EE10FA03DDE6
:1046F0008F4BD3ED007A02E08C4BD3ED007A8D4BDB
:1047000093ED007AF4EEC77AF1EE10FA10DD874BE4
:1047100093ED007A864BD3ED007AB4EEE77AF1EEB2
:1047200010FA02DD824B1B6804E0804B1B6801E03D
:10473000804B1B687D4A13607C4B93ED007A7E4B67
:10474000D3ED007A77EE677A7C4BC3ED007A7B4B32
:10475000D3ED007AB1EE007A67EE877A784BC3ED3D
:10476000007A774BD3ED007AF5EEC07AF1EE10FACD
:1047700017DD00210120FFF7CBF9714BD3ED007A53
:10478000FCEEE77A17EE903A3B6107F10C030C223E
:1047900019466448FEF738F90C216248FDF724FFFA
:1047A00020E0674BD3ED007AF5EEC07AF1EE10FA17
:1047B00018D501210120FFF7ABF9614BD3ED007A49
:1047C000F1EE677AFCEEE77A17EE903A3B6107F17B
:1047D0000C030C2219465348FEF716F90C215148D8
:1047E000FDF702FF574B1B68042B33DD564B1B882C
:1047F000C3F34013DBB2002B2CD0524B00221A60C3
:10480000524B1B68C72B25DC514BD3ED007A4F4B25
:104810001B68FDEEE77A17EE901A4E4A42F8231015
:10482000454BD3ED007A494B1B68FDEEE77A17EE56
:10483000901A494A42F82310444B1B680133434AFB
:10484000136007E002210020FFF762F90221012036
:10485000FFF75EF90023FB85404B1B780133002BEB
:1048600003F00103B8BF5B42DAB23C4B1A703B4B1A
:104870001B78012B44D0022B00F0B280002B00D01B
:1048800064E101224FF480413548FDF7A1F900238E
:10489000FB8502E0FB8D0133FB85FB8D40F6B732D3
:1048A0009342F7D903212F4800F002FF03461A462E
:1048B0002D4B1A6000224FF480412948FDF788F9FA
:1048C00001224FF480712948FDF782F90023FB850E
:1048D00002E0FB8D0133FB85FB8D40F6B73293423E
:1048E000F7D901211F4800F0E3FE03461A46204B8A
:1048F0001A6000224FF480711C48FDF769F925E128
:1049000001224FF400411648FDF762F90023FB85B0
:1049100033E000BFAFF30080FCA9F1D24D62503FFD
:10492000980A0020000B0020E0090020AC010020C4
:10493000B0010020540E0020C4020020F80A00201C
:104940007C0600203C010020500E00204001002089
:10495000EC0900208006002058030020610E002092
:1049600000080240F8090020F4090020000002407D
:104970004C0E0020FB8D0133FB85FB8D40F6B732DA
:104980009342F7D90221734800F092FE03461A467B
:10499000714B1A6000224FF400417048FDF718F97E
:1049A00001224FF400716D48FDF712F90023FB85D9
:1049B00002E0FB8D0133FB85FB8D40F6B73293425D
:1049C000F7D90021634800F073FE03461A46644B92
:1049D0001A6000224FF400716048FDF7F9F8B5E065
:1049E000604B1B88C3F38003DBB2002B00F0A68072
:1049F0000023BB8500237B855B4B1B689AB25B4B16
:104A00001B88D31A9BB21AB2594B1A80594B1B6898
:104A10009AB2594B1B88D31A9BB21AB2574B1A80C1
:104A2000534BB3F90030322B30DDB7F92C3007EEA1
:104A3000903AB8EEE77A4E4BB3F9003007EE903A71
:104A4000F8EEE77ADFED4E6A67EEA67A77EE277A20
:104A5000FDEEE77A17EE903ABB85B7F92A3007EEFC
:104A6000903AB8EEE77A424BB3F9003007EE903A4D
:104A7000F8EEE77ADFED436A67EEA67A77EE277AFB
:104A8000FDEEE77A17EE903A7B8534E03B4BB3F9C5
:104A90000030322B2FDDB7F92C3007EE903AB8EE0C
:104AA000E77A364BB3F9003007EE903AF8EEE77A42
:104AB000DFED346A67EEA67A77EE277AFDEEE77AC5
:104AC00017EE903ABB85B7F92A3007EE903AB8EE68
:104AD000E77A2A4BB3F9003007EE903AF8EEE77A1E
:104AE000DFED276A67EEA67A77EE277AFDEEE77AA2
:104AF00017EE903A7B85B7F92C30234A934208DBB6
:104B0000B7F92C3040F6AC529342A8BF13461BB203
:104B100000E01E4B1E4A1380B7F92A301A4A93420E
:104B200008DBB7F92A3040F6AC529342A8BF1346CF
:104B30001BB200E0154B174A138006E00021154B0D
:104B40000A461A80124B0A461A8000BF00BF30374F
:104B5000BD46B0BDF8090020400C0020000802400E
:104B6000F00A0020500E0020F40900205403002019
:104B7000460A00204C0E0020C8020020A20A002095
:104B8000CDCCCC3ECDCCCCBE55F2FFFF54F2FFFFD6
:104B9000EC0A0020580E002080B58CB002AFFCF764
:104BA00005F900F09DF900F08FFC00F003FA00F029
:104BB00089FA00F007FB00F07BFB00F0CDFB00F072
:104BC00001FC00F049FA00F055FCAD4801F038FA5C
:104BD000AC4B1B689B680021184601F039FA3C2158
:104BE000A948FDF7D1FD3C21A848FDF7CDFDA84817
:104BF000FDF7A1FC60233B600023BB6000233B6109
:104C000000237B62796AA34801F0A6F97B6ADBB2D4
:104C100003F00103D8B27B6ADBB203F00203D9B21E
:104C20007B6ADBB203F00403DBB21A4600F06AFDD4
:104C3000994BD3ED007AB3EE047AF4EEC77AF1EE35
:104C400010FA25DB7B6A01337B62934B4FF0000245
:104C50001A607B6A072B01DD00237B62796A8D482D
:104C600001F07AF97B6A013B8C4A52F833007B6A87
:104C7000013B8A4ADB0013445B68194600F0E2FC02
:104C8000874B1A69864B5B691946104600F0DAFCBF
:104C9000814BD3ED007ABBEE047AF4EEC77AF1EEE5
:104CA00010FA25D87B6A013B7B627B4B4FF00002F8
:104CB0001A607B6A002B01DA07237B62796A7548E8
:104CC00001F04AF97B6A013B744A52F833007B6A6F
:104CD000013B724ADB0013445B68194600F0B2FCEA
:104CE0006F4B1A696E4B5B691946104600F0AAFCBF
:104CF0004FF400616B48FCF753FF0346002B85D14E
:104D00003220FCF7C5F800BF4FF400616548FCF79E
:104D100047FF0346002BF7D07B6A062B3FF676AFA2
:104D200001A252F823F000BF454D00080D4C0008C9
:104D30000D4C00080D4C0008E94D0008EF4D00082F
:104D4000414E0008584A138843F0020313800023A1
:104D50003B6240E04FF4FA70FCF79AF8534B544A28
:104D60001A60544B524A1A6000BF534BD3ED007A7D
:104D70009FED527AF4EEC77AF1EE10FA09D5464B60
:104D8000D3ED007A9FED4D7AF4EEC77AF1EE10FA8A
:104D9000EBD4464B4A4A1A60464B494A1A6000BF58
:104DA000454BD3ED007AF5EEC07AF1EE10FA07DD4F
:104DB000394BD3ED007AF5EEC07AF1EE10FAEFDC64
:104DC0003A4B4FF000021A603A4B4FF000021A6063
:104DD0003B6A01333B623B6A022BBBDD324A1388DC
:104DE0006FF341031380F9E7FFF7E4F947E0354833
:104DF00001F026F900F0C8FC334B1B7803F01103D7
:104E0000D8B2314B1B7823F07703D9B22E4B1B78E5
:104E100003F04403DBB21A4600F074FC2B4B196814
:104E20002B4B1A682B4B18682B4B1B6800930346BF
:104E30002A4801F091F840F24D10FCF729F8D9E723
:104E400000BF4FF400611748FCF7AAFE0346012B90
:104E5000F7D00023FB610EE0114AFB6952F83300E2
:104E60000F4AFB69DB0013445B68194600F0EAFB5C
:104E7000FB690133FB61FB690A2BEDDD00BFC5E671
:104E800044700008BC00002014030020D40200205D
:104E9000A40A002060700008E809002060000020DB
:104EA0000800002000000240500E0020E80A002008
:104EB00000004843AC010020640E0020000096432F
:104EC000000048C36C700008D0020020F4090020E4
:104ED000400C0020F00A00204C0E00207C700008DE
:104EE00080B594B000AF07F12003302200211846AE
:104EF00001F02AF807F10C0300221A605A609A6048
:104F0000DA601A610023BB60284B1B6C274A43F010
:104F100080531364254B1B6C03F08053BB60BB684C
:104F200000237B60224B1B68214A43F480431360BB
:104F30001F4B1B6803F480437B607B6802233B624A
:104F40000123FB6210233B630223BB630023FB634B
:104F500008233B64A8237B640223BB640423FB6413
:104F600007F120031846FCF74DFE0346002B01D045
:104F700000F002FC0F23FB6002233B6100237B61F6
:104F80004FF4A053BB614FF48053FB6107F10C0356
:104F900005211846FDF778F80346002B01D000F0F4
:104FA000EBFB00BF5037BD4680BD00BF003802405C
:104FB0000070004080B584B000AF3B4600221A600C
:104FC0005A609A60DA60214B214A1A601F4B4FF4F5
:104FD00080325A601D4B00229A601C4B00221A61DD
:104FE0001A4B00221A76194B002283F82020174B07
:104FF0000022DA62154B174A9A62144B0022DA60DB
:10500000124B0122DA61114B002283F830200F4B42
:1050100001225A610D48FBF75DFF0346002B01D0CA
:1050200000F0AAFB00233B6001237B600023BB60F0
:105030003B4619460548FCF7E9F80346002B01D02A
:1050400000F09AFB00BF1037BD4680BDF809002074
:10505000002001400100000F80B500AF174B184A37
:105060001A60164B4FF482725A60144B00229A60F9
:10507000124B0022DA60114B00221A610F4B002202
:105080005A610E4B4FF400729A610C4B1822DA6190
:105090000A4B00221A62094B00225A62074B002277
:1050A0009A62064B0A22DA620448FDF7B5F9034614
:1050B000002B01D000F060FB00BF80BD5401002038
:1050C000003C004080B58EB000AF07F128030022FD
:1050D0001A605A609A60DA6007F1200300221A60B1
:1050E0005A603B1D00221A605A609A60DA601A61A9
:1050F0005A619A61324B4FF080421A60304B002265
:105100005A602F4B00229A602D4B40F2E732DA6052
:105110002B4B00221A612A4B00229A612848FDF786
:10512000DFF90346002B01D000F026FB4FF480533B
:10513000BB6207F1280319462148FDF72BFD034602
:10514000002B01D000F018FB1D48FDF718FA0346AC
:10515000002B01D000F010FB00233B6200237B6298
:1051600007F1200319461648FEF703F90346002B02
:1051700001D000F001FB60237B600023BB600023B3
:10518000FB6000237B613B1D002219460C48FDF7A4
:105190003BFC0346002B01D000F0EEFA3B1D0C2235
:1051A00019460748FDF730FC0346002B01D000F0FC
:1051B000E3FA034800F0A6FC00BF3837BD4680BDC7
:1051C000000B002080B58EB000AF07F1280300224D
:1051D0001A605A609A60DA6007F1200300221A60B0
:1051E0005A603B1D00221A605A609A60DA601A61A8
:1051F0005A619A612C4B2D4A1A602B4B3F225A6000
:10520000294B00229A60284B0022DA60264B0022AC
:105210001A61254B00229A612348FDF761F9034684
:10522000002B01D000F0A8FA4FF48053BB6207F1C5
:10523000280319461C48FDF7ADFC0346002B01D09E
:1052400000F09AFA1848FDF79AF90346002B01D0AE
:1052500000F092FA00233B6200237B6207F12003F7
:1052600019461148FEF785F80346002B01D000F0DF
:1052700083FA60237B600023BB600023FB60002374
:105280007B613B1D042219460748FDF7BDFB034621
:10529000002B01D000F070FA034800F033FC00BF8F
:1052A0003837BD4680BD00BFA00900200004004083
:1052B00080B58CB000AF07F10C0324220021184602
:1052C00000F042FE3B1D00221A605A60204B214A2A
:1052D0001A601F4B00225A601D4B00229A601C4B23
:1052E0004FF6FF72DA601A4B00221A61184B002247
:1052F0009A610323FB6000233B6101237B61002350
:10530000BB610023FB6100233B6201237B6200231E
:10531000BB620023FB6207F10C0319460C48FDF742
:10532000A1F90346002B01D000F026FA00237B6090
:105330000023BB603B1D19460548FEF71AF80346DB
:10534000002B01D000F018FA00BF3037BD4680BDF9
:10535000140300200008004080B582B000AF3B4637
:1053600000221A605A60154B154A1A60134B5322DB
:105370005A60124B00229A60104B40F2E732DA601A
:105380000E4B00229A610D48FDF7AAF80346002B48
:1053900001D000F0F1F900233B6000237B603B4625
:1053A00019460648FDF7E5FF0346002B01D000F043
:1053B000E3F900BF0837BD4680BD00BFA40A002046
:1053C0000010004080B58CB000AF07F10C03242220
:1053D0000021184600F0B8FD3B1D00221A605A60FB
:1053E000224B234A1A60214B00225A601F4B002295
:1053F0009A601E4B4FF6FF72DA601C4B00221A6156
:105400001A4B00225A61194B00229A610323FB6058
:1054100000233B6101237B610023BB610023FB610F
:1054200000233B6201237B620023BB620023FB62FB
:1054300007F10C0319460D48FDF714F90346002B3C
:1054400001D000F099F900237B600023BB603B1D75
:1054500019460648FDF78DFF0346002B01D000F0EA
:105460008BF900BF3037BD4680BD00BFD40200209D
:105470000004014080B500AF114B124A1A60104B76
:105480004FF416525A600E4B00229A600C4B0022C9
:10549000DA600B4B00221A61094B0C225A61084B4F
:1054A00000229A61064B0022DA610548FDF7BAFF37
:1054B0000346002B01D000F05FF900BF80BD00BFA4
:1054C000580A00200010014080B58AB000AF07F1F3
:1054D000140300221A605A609A60DA601A6100238D
:1054E0003B61534B1B6B524A43F004031363504B15
:1054F0001B6B03F004033B613B690023FB604C4BD7
:105500001B6B4B4A43F001031363494B1B6B03F0C6
:105510000103FB60FB680023BB60454B1B6B444AE7
:1055200043F002031363424B1B6B03F00203BB60A7
:10553000BB6800237B603E4B1B6B3D4A43F0080376
:1055400013633B4B1B6B03F008037B607B680022FB
:105550004EF23C213748FCF73BFB00224FF4E87148
:105560003548FCF735FB002242F203713348FCF763
:105570002FFB002204213248FCF72AFB4EF23C2389
:105580007B610123BB610023FB6100233B6207F1C8
:10559000140319462748FCF769F94FF4E8737B6157
:1055A0000123BB610023FB6100233B6207F114036D
:1055B00019462148FCF75AF942F203737B61012333
:1055C000BB610023FB6100233B6207F11403194612
:1055D0001A48FCF74BF94FF480537B610023BB6101
:1055E0000023FB6107F1140319461448FCF73EF948
:1055F0004FF400637B610023BB610023FB6107F173
:10560000140319460C48FCF731F904237B6101238C
:10561000BB610023FB6100233B6207F114031946C1
:105620000748FCF723F900BF2837BD4680BD00BFFF
:10563000003802400008024000000240000402401E
:10564000000C024080B58AB000AF786039606023FA
:10565000FB6000237B610023FB61114A7B6892FBA6
:10566000F3F3104A13600F4B1A680F4BDA620D4BBD
:105670001B68DA0F13445B103B6107F10C03042233
:1056800019460A48FDF7C0F904210848FCF7ACFFA9
:105690003B681846FBF7FCFB00BF2837BD4680BDC2
:1056A00040420F00CC02002000040040A00900206E
:1056B00080B586B000AF7860396007F1080300223A
:1056C0001A605A609A60DA603B68BB600123FB6035
:1056D00000233B6100237B6107F1080319467868CA
:1056E000FBF794FD7868FBF739FC64217868FBF7D9
:1056F000FBFC7868FBF77CFD034618461837BD466F
:1057000080BD000080B582B000AF0346FB710B4640
:10571000BB7113467B71FB79002B05D00122102150
:105720001448FCF755FA04E0002210211148FCF758
:105730004FFABB79002B05D0012240210D48FCF720
:1057400047FA04E0002240210A48FCF741FA7B793D
:10575000002B05D0012280210648FCF739FA04E02D
:10576000002280210348FCF733FA00BF0837BD460A
:1057700080BD00BF0000024080B400AF00BFBD4646
:105780005DF8047B7047000080B400AF164B002228
:105790001A70164B1B68282B03D8154B1B68962BC9
:1057A00006D9114B1B7863F07703DAB20E4B1A70EF
:1057B000104B1B68322B06D90B4B1B7843F044036C
:1057C000DAB2094B1A700C4B1B68642B06D9064BD6
:1057D0001B7843F01103DAB2034B1A7000BFBD46C9
:1057E0005DF8047B704700BFD0020020F00A002063
:1057F000400C00204C0E0020F409002080B483B03F
:1058000000AF00237B60104B5B6C0F4A43F4804376
:1058100053640D4B5B6C03F480437B607B68002317
:105820003B60094B1B6C084A43F080531364064BE2
:105830001B6C03F080533B603B6800BF0C37BD46D8
:105840005DF8047B704700BF0038024080B58AB025
:1058500000AF786007F1140300221A605A609A6062
:10586000DA601A617B681B68174A934227D10023CC
:105870003B61164B5B6C154A43F480735364134BC6
:105880005B6C03F480733B613B690023FB600F4B4F
:105890001B6B0E4A43F0010313630C4B1B6B03F0AD
:1058A0000103FB60FB680F237B610323BB610023C3
:1058B000FB6107F1140319460548FBF7D7FF00BF4A
:1058C0002837BD4680BD00BF00200140003802409F
:1058D0000000024080B58AB000AF786007F1140381
:1058E00000221A605A609A60DA601A617B681B684D
:1058F000194A93422CD100233B61184B1B6C174A69
:1059000043F400431364154B1B6C03F400433B61E9
:105910003B690023FB60114B1B6B104A43F00403EF
:1059200013630E4B1B6B03F00403FB60FB684FF427
:10593000E0537B610223BB610023FB6103233B62D5
:1059400006237B6207F1140319460548FBF78EFF17
:1059500000BF2837BD4680BD003C004000380240F3
:105960000008024080B586B000AF78607B681B6895
:10597000B3F1804F0ED100237B61204B1B6C1F4A7B
:1059800043F0010313641D4B1B6C03F001037B61A7
:105990007B692EE07B681B68194A93420ED1002375
:1059A0003B61164B1B6C154A43F002031364134B07
:1059B0001B6C03F002033B613B691AE07B681B68C8
:1059C000104A934215D10023FB600C4B1B6C0B4A11
:1059D00043F010031364094B1B6C03F01003FB60CE
:1059E000FB68002200213620FBF709FF3620FBF779
:1059F00022FF00BF1837BD4680BD00BF00380240FF
:105A0000000400400010004080B58CB000AF78600A
:105A100007F11C0300221A605A609A60DA601A616A
:105A20007B681B68324A93422CD10023BB61314B07
:105A30001B6C304A43F0040313642E4B1B6C03F0C1
:105A40000403BB61BB6900237B612A4B1B6B294AA2
:105A500043F002031363274B1B6B03F002037B61CC
:105A60007B69C023FB6102233B6200237B6200232E
:105A7000BB620223FB6207F11C0319461E48FBF7B9
:105A8000F5FE30E07B681B681C4A93422BD1002353
:105A90003B61184B5B6C174A43F002035364154B90
:105AA0005B6C03F002033B613B690023FB60114B1D
:105AB0001B6B104A43F0040313630E4B1B6B03F084
:105AC0000403FB60FB68C023FB6102233B620023ED
:105AD0007B620023BB620323FB6207F11C031946B0
